{"bytecode":"60806040523480156200001157600080fd5b50600080546001600160a01b031916331790556040805180820182526002815261434360f01b6020808301919091528251808401909352600f83526e436c6f756420436f6d707574696e6760881b908301526200007091602862000353565b620000b36040518060400160405280600481526020016313d3d05160e21b81525060405180606001604052806021815260200162002de660219139602362000353565b620001086040518060400160405280600281526020016110d160f21b8152506040518060400160405280600f81526020016e21b7b6b834b632b9102232b9b4b3b760891b815250601e6200035360201b60201c565b6200016c6040518060400160405280600381526020016226a0a960e91b8152506040518060400160405280601381526020017f4d61726b6574696e6720416e616c79746963730000000000000000000000000081525060196200035360201b60201c565b620001cf60405180604001604052806002815260200161424360f01b8152506040518060400160405280601981526020017f426c6f636b636861696e20262043727970746f6772617068790000000000000081525060146200035360201b60201c565b620002256040518060400160405280600581526020016447656e414960d81b8152506040518060400160405280600d81526020016c47656e6572617469766520414960981b815250600f6200035360201b60201c565b620002896040518060400160405280600381526020016211109560ea1b8152506040518060400160405280601581526020017f446174616261736520546563686e6f6c6f676965730000000000000000000000815250601e6200035360201b60201c565b620002ec60405180604001604052806002815260200161111560f21b8152506040518060400160405280601681526020017f4469676974616c205472616e73666f726d6174696f6e0000000000000000000081525060146200035360201b60201c565b6200034360405180604001604052806002815260200161222360f11b815250604051806040016040528060118152602001704469676974616c20466f72656e7369637360781b81525060146200035360201b60201c565b60006009819055600a5562000693565b6040518060a0016040528084815260200183815260200182815260200160008152602001600115158152506001846040516200039091906200049c565b90815260405190819003602001902081518190620003af90826200055f565b5060208201516001820190620003c690826200055f565b5060408201516002820155606082015160038201556080909101516004909101805460ff1916911515919091179055600780546001810182556000919091527fa66cc928b5edb82af9bd49922954155ab7b0942694bea4ce44661d9a8736c688016200043384826200055f565b507fffd03aff0fabd06b66d1b05d6f233d28748e0b9176f6589b827565f5788ca737838383604051620004699392919062000659565b60405180910390a1505050565b60005b838110156200049357818101518382015260200162000479565b50506000910152565b60008251620004b081846020870162000476565b9190910192915050565b634e487b7160e01b600052604160045260246000fd5b600181811c90821680620004e557607f821691505b6020821081036200050657634e487b7160e01b600052602260045260246000fd5b50919050565b601f8211156200055a57600081815260208120601f850160051c81016020861015620005355750805b601f850160051c820191505b81811015620005565782815560010162000541565b5050505b505050565b81516001600160401b038111156200057b576200057b620004ba565b62000593816200058c8454620004d0565b846200050c565b602080601f831160018114620005cb5760008415620005b25750858301515b600019600386901b1c1916600185901b17855562000556565b600085815260208120601f198616915b82811015620005fc57888601518255948401946001909101908401620005db565b50858210156200061b5787850151600019600388901b60f8161c191681555b5050505050600190811b01905550565b600081518084526200064581602086016020860162000476565b601f01601f19169290920160200192915050565b6060815260006200066e60608301866200062b565b82810360208401526200068281866200062b565b915050826040830152949350505050565b61274380620006a36000396000f3fe608060405234801561001057600080fd5b506004361061018e5760003560e01c806367b09cdb116100de5780639e00ffba11610097578063c2f8809e11610071578063c2f8809e14610427578063d663d0d61461044c578063da6181611461045f578063f851a4401461048457600080fd5b80639e00ffba146103e9578063a6c807a9146103fc578063b4062a311461041e57600080fd5b806367b09cdb146102e657806370ba913c146102f957806371e17445146103455780637d01e83c1461035857806384ebf8ae146103605780638c598ec3146103bb57600080fd5b806344a8ef191161014b578063560fbd4711610125578063560fbd471461027c5780635975c2fb1461028f5780635d1c6dce146102a257806360a0bdda146102c657600080fd5b806344a8ef19146102325780634b82caec146102475780635310b5511461026957600080fd5b806310a7fd7b1461019357806311c83abb146101c057806313446a75146101f95780632306f600146102025780632359b7b81461020a57806343ec56651461021f575b600080fd5b6101a66101a1366004611e90565b610497565b6040516101b7959493929190611ef9565b60405180910390f35b6101eb6101ce366004611ff0565b805160208183018101805160068252928201919093012091525481565b6040519081526020016101b7565b6101eb600a5481565b6008546101eb565b610212610674565b6040516101b7919061202d565b6101a661022d366004611e90565b61074d565b61024561024036600461208f565b61099e565b005b61025a6102553660046120fc565b610a8d565b6040516101b79392919061212c565b610245610277366004611ff0565b610b78565b61024561028a366004612151565b610ebf565b61024561029d366004612196565b611008565b6102b56102b0366004611ff0565b6110b5565b6040516101b79594939291906121ed565b6102d96102d4366004611e90565b611203565b6040516101b79190612232565b6102456102f4366004611ff0565b6112af565b61032d610307366004611ff0565b80516020818301810180516004825292820191909301209152546001600160a01b031681565b6040516001600160a01b0390911681526020016101b7565b610245610353366004611ff0565b6117ba565b6101eb600481565b6103ab61036e366004612245565b8151602081840181018051600582529282019482019490942091909352815180830184018051928152908401929093019190912091525460ff1681565b60405190151581526020016101b7565b6103ab6103c9366004611ff0565b805160208183018101805160038252928201919093012091525460ff1681565b6103ab6103f7366004612245565b611a03565b61040f61040a3660046120fc565b611a4d565b6040516101b7939291906122a9565b6101eb60095481565b61042f611b07565b6040805193845260208401929092521515908201526060016101b7565b61024561045a3660046122dc565b611b56565b61047261046d366004611ff0565b611bd4565b6040516101b7969594939291906122fe565b60005461032d906001600160a01b031681565b600881815481106104a757600080fd5b600091825260209091206005909102018054600182018054919350906104cc9061234b565b80601f01602080910402602001604051908101604052809291908181526020018280546104f89061234b565b80156105455780601f1061051a57610100808354040283529160200191610545565b820191906000526020600020905b81548152906001019060200180831161052857829003601f168201915b50505050509080600201805461055a9061234b565b80601f01602080910402602001604051908101604052809291908181526020018280546105869061234b565b80156105d35780601f106105a8576101008083540402835291602001916105d3565b820191906000526020600020905b8154815290600101906020018083116105b657829003601f168201915b5050505050908060030180546105e89061234b565b80601f01602080910402602001604051908101604052809291908181526020018280546106149061234b565b80156106615780601f1061063657610100808354040283529160200191610661565b820191906000526020600020905b81548152906001019060200180831161064457829003601f168201915b5050506004909301549192505060ff1685565b60606007805480602002602001604051908101604052809291908181526020016000905b828210156107445783829060005260206000200180546106b79061234b565b80601f01602080910402602001604051908101604052809291908181526020018280546106e39061234b565b80156107305780601f1061070557610100808354040283529160200191610730565b820191906000526020600020905b81548152906001019060200180831161071357829003601f168201915b505050505081526020019060010190610698565b50505050905090565b600060608060606000600880549050861061079e5760405162461bcd60e51b815260206004820152600c60248201526b4f7574206f662072616e676560a01b60448201526064015b60405180910390fd5b6000600887815481106107b3576107b3612385565b9060005260206000209060050201905080600001548160010182600201836003018460040160009054906101000a900460ff168380546107f29061234b565b80601f016020809104026020016040519081016040528092919081815260200182805461081e9061234b565b801561086b5780601f106108405761010080835404028352916020019161086b565b820191906000526020600020905b81548152906001019060200180831161084e57829003601f168201915b5050505050935082805461087e9061234b565b80601f01602080910402602001604051908101604052809291908181526020018280546108aa9061234b565b80156108f75780601f106108cc576101008083540402835291602001916108f7565b820191906000526020600020905b8154815290600101906020018083116108da57829003601f168201915b5050505050925081805461090a9061234b565b80601f01602080910402602001604051908101604052809291908181526020018280546109369061234b565b80156109835780601f1061095857610100808354040283529160200191610983565b820191906000526020600020905b81548152906001019060200180831161096657829003601f168201915b50505050509150955095509550955095505091939590929450565b6000546001600160a01b031633146109c85760405162461bcd60e51b81526004016107959061239b565b6001836040516109d891906123d2565b90815260405190819003602001902080546109f29061234b565b159050610a395760405162461bcd60e51b8152602060048201526015602482015274436f7572736520616c72656164792065786973747360581b6044820152606401610795565b60008111610a7d5760405162461bcd60e51b815260206004820152601160248201527005365617473206d757374206265203e203607c1b6044820152606401610795565b610a88838383611d84565b505050565b6001600160a01b03811660009081526002602052604080822060018101549151606093928392918291600160a01b900460ff1690600690610acf9084906123ee565b908152602001604051809103902054828054610aea9061234b565b80601f0160208091040260200160405190810160405280929190818152602001828054610b169061234b565b8015610b635780601f10610b3857610100808354040283529160200191610b63565b820191906000526020600020905b815481529060010190602001808311610b4657829003601f168201915b50505050509250935093509350509193909250565b3360009081526002602052604090206001810154600160a01b900460ff16610bdb5760405162461bcd60e51b815260206004820152601660248201527514dd1d59195b9d081b9bdd081c9959da5cdd195c995960521b6044820152606401610795565b604051600590610bec9083906123ee565b908152602001604051809103902082604051610c0891906123d2565b9081526040519081900360200190205460ff16610c675760405162461bcd60e51b815260206004820152601b60248201527f4e6f7420656e726f6c6c656420696e207468697320636f7572736500000000006044820152606401610795565b6000600183604051610c7991906123d2565b9081526040519081900360200190206003810180549192506000610c9c8361247a565b91905055506000600583600001604051610cb691906123ee565b908152602001604051809103902084604051610cd291906123d2565b908152604051908190036020018120805492151560ff1990931692909217909155600690610d019084906123ee565b9081526040519081900360200190208054906000610d1e8361247a565b919050555060086040518060a00160405280428152602001846000018054610d459061234b565b80601f0160208091040260200160405190810160405280929190818152602001828054610d719061234b565b8015610dbe5780601f10610d9357610100808354040283529160200191610dbe565b820191906000526020600020905b815481529060010190602001808311610da157829003601f168201915b505050918352505060208082018790526040805180820182526004815263044524f560e41b81840152908301526001606090920182905283548083018555600094855293819020835160059095020193845582015191929190820190610e2490826124df565b5060408201516002820190610e3990826124df565b5060608201516003820190610e4e90826124df565b50608091909101516004909101805460ff1916911515919091179055600381015460028201547f918815377050bdb6f6c2cf208fdd163ce8503e73e494fc90c8246a00b8e896f49184918691610ea39161259f565b604051610eb2939291906125b2565b60405180910390a1505050565b6000546001600160a01b03163314610ee95760405162461bcd60e51b81526004016107959061239b565b600182604051610ef991906123d2565b9081526040519081900360200190208054610f139061234b565b9050600003610f345760405162461bcd60e51b815260040161079590612659565b600182604051610f4491906123d2565b908152602001604051809103902060030154811015610fa55760405162461bcd60e51b815260206004820152601c60248201527f43616e6e6f74207265647563652062656c6f7720656e726f6c6c6564000000006044820152606401610795565b80600183604051610fb691906123d2565b9081526020016040518091039020600201819055507fbf6cdcf09a1046a04c838229f3ed494cc74b61ebd6caa235f66fd1ffaaf06a958282604051610ffc929190612683565b60405180910390a15050565b6000546001600160a01b031633146110325760405162461bcd60e51b81526004016107959061239b565b60018260405161104291906123d2565b908152604051908190036020019020805461105c9061234b565b905060000361107d5760405162461bcd60e51b815260040161079590612659565b8060018360405161108e91906123d2565b908152604051908190036020019020600401805491151560ff199092169190911790555050565b80516020818301810180516001825292820191909301209152805481906110db9061234b565b80601f01602080910402602001604051908101604052809291908181526020018280546111079061234b565b80156111545780601f1061112957610100808354040283529160200191611154565b820191906000526020600020905b81548152906001019060200180831161113757829003601f168201915b5050505050908060010180546111699061234b565b80601f01602080910402602001604051908101604052809291908181526020018280546111959061234b565b80156111e25780601f106111b7576101008083540402835291602001916111e2565b820191906000526020600020905b8154815290600101906020018083116111c557829003601f168201915b50505050600283015460038401546004909401549293909290915060ff1685565b6007818154811061121357600080fd5b90600052602060002001600091509050805461122e9061234b565b80601f016020809104026020016040519081016040528092919081815260200182805461125a9061234b565b80156112a75780601f1061127c576101008083540402835291602001916112a7565b820191906000526020600020905b81548152906001019060200180831161128a57829003601f168201915b505050505081565b6009541515806112c05750600a5415155b1561136a576009544210156113175760405162461bcd60e51b815260206004820152601960248201527f526567697374726174696f6e206e6f74206f70656e20796574000000000000006044820152606401610795565b600a5415806113285750600a544211155b61136a5760405162461bcd60e51b8152602060048201526013602482015272149959da5cdd1c985d1a5bdb8818db1bdcd959606a1b6044820152606401610795565b3360009081526002602052604090206001810154600160a01b900460ff166113cd5760405162461bcd60e51b815260206004820152601660248201527514dd1d59195b9d081b9bdd081c9959da5cdd195c995960521b6044820152606401610795565b60006001836040516113df91906123d2565b908152602001604051809103902090508060000180546113fe9061234b565b905060000361141f5760405162461bcd60e51b815260040161079590612659565b600481015460ff1661146a5760405162461bcd60e51b8152602060048201526014602482015273436f75727365206973206e6f742061637469766560601b6044820152606401610795565b80600201548160030154106114b65760405162461bcd60e51b81526020600482015260126024820152714e6f20736561747320617661696c61626c6560701b6044820152606401610795565b6040516005906114c79084906123ee565b9081526020016040518091039020836040516114e391906123d2565b9081526040519081900360200190205460ff16156115365760405162461bcd60e51b815260206004820152601060248201526f105b1c9958591e48195b9c9bdb1b195960821b6044820152606401610795565b600460068360000160405161154b91906123ee565b9081526020016040518091039020541061159f5760405162461bcd60e51b815260206004820152601560248201527413585e080d0818dbdd5c9cd95cc81c995858da1959605a1b6044820152606401610795565b6003810180549060006115b1836126a5565b919050555060016005836000016040516115cb91906123ee565b9081526020016040518091039020846040516115e791906123d2565b908152604051908190036020018120805492151560ff19909316929092179091556006906116169084906123ee565b9081526040519081900360200190208054906000611633836126a5565b919050555060086040518060a0016040528042815260200184600001805461165a9061234b565b80601f01602080910402602001604051908101604052809291908181526020018280546116869061234b565b80156116d35780601f106116a8576101008083540402835291602001916116d3565b820191906000526020600020905b8154815290600101906020018083116116b657829003601f168201915b50505091835250506020808201879052604080518082018252600681526511539493d31360d21b8184015290830152600160609092018290528354808301855560009485529381902083516005909502019384558201519192919082019061173b90826124df565b506040820151600282019061175090826124df565b506060820151600382019061176590826124df565b50608091909101516004909101805460ff1916911515919091179055600381015460028201547fa8e78d4cb17aebac25cee2fffe78583d4c9c30b03c8b3472b3aab6da3d35065b9184918691610ea39161259f565b33600090815260026020526040902060010154600160a01b900460ff16156118245760405162461bcd60e51b815260206004820152601960248201527f57616c6c657420616c72656164792072656769737465726564000000000000006044820152606401610795565b60038160405161183491906123d2565b9081526040519081900360200190205460ff16156118945760405162461bcd60e51b815260206004820152601860248201527f53747564656e7420494420616c72656164792074616b656e00000000000000006044820152606401610795565b60008151116118e55760405162461bcd60e51b815260206004820152601a60248201527f53747564656e742049442063616e6e6f7420626520656d7074790000000000006044820152606401610795565b60408051606081018252828152336020808301829052600183850152600091825260029052919091208151819061191c90826124df565b506020820151600191820180546040948501511515600160a01b026001600160a81b03199091166001600160a01b039093169290921791909117905590516003906119689084906123d2565b908152604051908190036020018120805492151560ff199093169290921790915533906004906119999084906123d2565b90815260405190819003602001812080546001600160a01b03939093166001600160a01b0319909316929092179091557faa541cc9975b48a66ff0fcced1b6a07701b89f4bf70332c0e06f406f61b8e979906119f890839033906126be565b60405180910390a150565b6000600583604051611a1591906123d2565b908152602001604051809103902082604051611a3191906123d2565b9081526040519081900360200190205460ff1690505b92915050565b600260205260009081526040902080548190611a689061234b565b80601f0160208091040260200160405190810160405280929190818152602001828054611a949061234b565b8015611ae15780601f10611ab657610100808354040283529160200191611ae1565b820191906000526020600020905b815481529060010190602001808311611ac457829003601f168201915b505050600190930154919250506001600160a01b0381169060ff600160a01b9091041683565b6000806000806009546000148015611b1f5750600a54155b80611b4357506009544210158015611b435750600a541580611b435750600a544211155b600954600a549096909550909350915050565b6000546001600160a01b03163314611b805760405162461bcd60e51b81526004016107959061239b565b801580611b8c57508181115b611bc95760405162461bcd60e51b815260206004820152600e60248201526d496e76616c69642077696e646f7760901b6044820152606401610795565b600991909155600a55565b6060806000806000806000600188604051611bef91906123d2565b90815260200160405180910390209050806000018054611c0e9061234b565b9050600003611c2f5760405162461bcd60e51b815260040161079590612659565b6002810154600382015482916001830191611c4a818361259f565b6004860154855460ff909116908690611c629061234b565b80601f0160208091040260200160405190810160405280929190818152602001828054611c8e9061234b565b8015611cdb5780601f10611cb057610100808354040283529160200191611cdb565b820191906000526020600020905b815481529060010190602001808311611cbe57829003601f168201915b50505050509550848054611cee9061234b565b80601f0160208091040260200160405190810160405280929190818152602001828054611d1a9061234b565b8015611d675780601f10611d3c57610100808354040283529160200191611d67565b820191906000526020600020905b815481529060010190602001808311611d4a57829003601f168201915b505050505094509650965096509650965096505091939550919395565b6040518060a001604052808481526020018381526020018281526020016000815260200160011515815250600184604051611dbf91906123d2565b90815260405190819003602001902081518190611ddc90826124df565b5060208201516001820190611df190826124df565b5060408201516002820155606082015160038201556080909101516004909101805460ff1916911515919091179055600780546001810182556000919091527fa66cc928b5edb82af9bd49922954155ab7b0942694bea4ce44661d9a8736c68801611e5c84826124df565b507fffd03aff0fabd06b66d1b05d6f233d28748e0b9176f6589b827565f5788ca737838383604051610eb2939291906126e8565b600060208284031215611ea257600080fd5b5035919050565b60005b83811015611ec4578181015183820152602001611eac565b50506000910152565b60008151808452611ee5816020860160208601611ea9565b601f01601f19169290920160200192915050565b85815260a060208201526000611f1260a0830187611ecd565b8281036040840152611f248187611ecd565b90508281036060840152611f388186611ecd565b91505082151560808301529695505050505050565b634e487b7160e01b600052604160045260246000fd5b600082601f830112611f7457600080fd5b813567ffffffffffffffff80821115611f8f57611f8f611f4d565b604051601f8301601f19908116603f01168101908282118183101715611fb757611fb7611f4d565b81604052838152866020858801011115611fd057600080fd5b836020870160208301376000602085830101528094505050505092915050565b60006020828403121561200257600080fd5b813567ffffffffffffffff81111561201957600080fd5b61202584828501611f63565b949350505050565b6000602080830181845280855180835260408601915060408160051b870101925083870160005b8281101561208257603f19888603018452612070858351611ecd565b94509285019290850190600101612054565b5092979650505050505050565b6000806000606084860312156120a457600080fd5b833567ffffffffffffffff808211156120bc57600080fd5b6120c887838801611f63565b945060208601359150808211156120de57600080fd5b506120eb86828701611f63565b925050604084013590509250925092565b60006020828403121561210e57600080fd5b81356001600160a01b038116811461212557600080fd5b9392505050565b60608152600061213f6060830186611ecd565b93151560208301525060400152919050565b6000806040838503121561216457600080fd5b823567ffffffffffffffff81111561217b57600080fd5b61218785828601611f63565b95602094909401359450505050565b600080604083850312156121a957600080fd5b823567ffffffffffffffff8111156121c057600080fd5b6121cc85828601611f63565b925050602083013580151581146121e257600080fd5b809150509250929050565b60a08152600061220060a0830188611ecd565b82810360208401526122128188611ecd565b604084019690965250506060810192909252151560809091015292915050565b6020815260006121256020830184611ecd565b6000806040838503121561225857600080fd5b823567ffffffffffffffff8082111561227057600080fd5b61227c86838701611f63565b9350602085013591508082111561229257600080fd5b5061229f85828601611f63565b9150509250929050565b6060815260006122bc6060830186611ecd565b6001600160a01b0394909416602083015250901515604090910152919050565b600080604083850312156122ef57600080fd5b50508035926020909101359150565b60c08152600061231160c0830189611ecd565b82810360208401526123238189611ecd565b91505085604083015284606083015283608083015282151560a0830152979650505050505050565b600181811c9082168061235f57607f821691505b60208210810361237f57634e487b7160e01b600052602260045260246000fd5b50919050565b634e487b7160e01b600052603260045260246000fd5b60208082526018908201527f4f6e6c792061646d696e2063616e2063616c6c20746869730000000000000000604082015260600190565b600082516123e4818460208701611ea9565b9190910192915050565b60008083546123fc8161234b565b60018281168015612414576001811461242957612458565b60ff1984168752821515830287019450612458565b8760005260208060002060005b8581101561244f5781548a820152908401908201612436565b50505082870194505b50929695505050505050565b634e487b7160e01b600052601160045260246000fd5b60008161248957612489612464565b506000190190565b601f821115610a8857600081815260208120601f850160051c810160208610156124b85750805b601f850160051c820191505b818110156124d7578281556001016124c4565b505050505050565b815167ffffffffffffffff8111156124f9576124f9611f4d565b61250d81612507845461234b565b84612491565b602080601f831160018114612542576000841561252a5750858301515b600019600386901b1c1916600185901b1785556124d7565b600085815260208120601f198616915b8281101561257157888601518255948401946001909101908401612552565b508582101561258f5787850151600019600388901b60f8161c191681555b5050505050600190811b01905550565b81810381811115611a4757611a47612464565b6060815260008085546125c48161234b565b80606086015260806001808416600081146125e6576001811461260057612631565b60ff1985168884015283151560051b880183019550612631565b8a60005260208060002060005b868110156126285781548b820187015290840190820161260d565b8a018501975050505b505050505082810360208401526126488186611ecd565b915050826040830152949350505050565b60208082526010908201526f10dbdd5c9cd9481b9bdd08199bdd5b9960821b604082015260600190565b6040815260006126966040830185611ecd565b90508260208301529392505050565b6000600182016126b7576126b7612464565b5060010190565b6040815260006126d16040830185611ecd565b905060018060a01b03831660208301529392505050565b6060815260006126fb6060830186611ecd565b82810360208401526126488186611ecd56fea26469706673582212203c8e8b7630c07da56324f1d67dd82ccd2f1eeb7349933c597f18cb570486bf7664736f6c634300081300334f626a656374204f7269656e74656420416e616c7973697320262044657369676e","bytecodeSha1":"da39a3ee5e6b4b0d3255bfef95601890afd80709","type":"contract","abi":[{"inputs":[],"stateMutability":"nonpayable","type":"constructor","name":"constructor"},{"anonymous":false,"inputs":[{"indexed":false,"internalType":"string","name":"courseId","type":"string"},{"indexed":false,"internalType":"string","name":"courseName","type":"string"},{"indexed":false,"internalType":"uint256","name":"seats","type":"uint256"}],"name":"CourseAdded","type":"event"},{"anonymous":false,"inputs":[{"indexed":false,"internalType":"string","name":"studentId","type":"string"},{"indexed":false,"internalType":"string","name":"courseId","type":"string"},{"indexed":false,"internalType":"uint256","name":"remainingSeats","type":"uint256"}],"name":"Dropped","type":"event"},{"anonymous":false,"inputs":[{"indexed":false,"internalType":"string","name":"studentId","type":"string"},{"indexed":false,"internalType":"string","name":"courseId","type":"string"},{"indexed":false,"internalType":"uint256","name":"remainingSeats","type":"uint256"}],"name":"Enrolled","type":"event"},{"anonymous":false,"inputs":[{"indexed":false,"internalType":"string","name":"courseId","type":"string"},{"indexed":false,"internalType":"uint256","name":"newTotal","type":"uint256"}],"name":"SeatUpdated","type":"event"},{"anonymous":false,"inputs":[{"indexed":false,"internalType":"string","name":"studentId","type":"string"},{"indexed":false,"internalType":"address","name":"wallet","type":"address"}],"name":"StudentRegistered","type":"event"},{"inputs":[],"name":"MAX_COURSES_PER_STUDENT","outputs":[{"internalType":"uint256","name":"","type":"uint256"}],"stateMutability":"view","type":"function"},{"inputs":[{"internalType":"string","name":"courseId","type":"string"},{"internalType":"string","name":"courseName","type":"string"},{"internalType":"uint256","name":"totalSeats","type":"uint256"}],"name":"addCourse","outputs":[],"stateMutability":"nonpayable","type":"function"},{"inputs":[],"name":"admin","outputs":[{"internalType":"address","name":"","type":"address"}],"stateMutability":"view","type":"function"},{"inputs":[{"internalType":"uint256","name":"","type":"uint256"}],"name":"courseList","outputs":[{"internalType":"string","name":"","type":"string"}],"stateMutability":"view","type":"function"},{"inputs":[{"internalType":"string","name":"","type":"string"}],"name":"courses","outputs":[{"internalType":"string","name":"courseId","type":"string"},{"internalType":"string","name":"courseName","type":"string"},{"internalType":"uint256","name":"totalSeats","type":"uint256"},{"internalType":"uint256","name":"enrolledCount","type":"uint256"},{"internalType":"bool","name":"isActive","type":"bool"}],"stateMutability":"view","type":"function"},{"inputs":[{"internalType":"string","name":"courseId","type":"string"}],"name":"drop","outputs":[],"stateMutability":"nonpayable","type":"function"},{"inputs":[{"internalType":"string","name":"courseId","type":"string"}],"name":"enroll","outputs":[],"stateMutability":"nonpayable","type":"function"},{"inputs":[{"internalType":"string","name":"","type":"string"},{"internalType":"string","name":"","type":"string"}],"name":"enrollments","outputs":[{"internalType":"bool","name":"","type":"bool"}],"stateMutability":"view","type":"function"},{"inputs":[{"internalType":"string","name":"courseId","type":"string"}],"name":"getCourse","outputs":[{"internalType":"string","name":"","type":"string"},{"internalType":"string","name":"","type":"string"},{"internalType":"uint256","name":"","type":"uint256"},{"internalType":"uint256","name":"","type":"uint256"},{"internalType":"uint256","name":"","type":"uint256"},{"internalType":"bool","name":"","type":"bool"}],"stateMutability":"view","type":"function"},{"inputs":[],"name":"getCourseIds","outputs":[{"internalType":"string[]","name":"","type":"string[]"}],"stateMutability":"view","type":"function"},{"inputs":[{"internalType":"uint256","name":"index","type":"uint256"}],"name":"getLedgerEntry","outputs":[{"internalType":"uint256","name":"","type":"uint256"},{"internalType":"string","name":"","type":"string"},{"internalType":"string","name":"","type":"string"},{"internalType":"string","name":"","type":"string"},{"internalType":"bool","name":"","type":"bool"}],"stateMutability":"view","type":"function"},{"inputs":[],"name":"getLedgerLength","outputs":[{"internalType":"uint256","name":"","type":"uint256"}],"stateMutability":"view","type":"function"},{"inputs":[],"name":"getRegistrationWindow","outputs":[{"internalType":"uint256","name":"","type":"uint256"},{"internalType":"uint256","name":"","type":"uint256"},{"internalType":"bool","name":"","type":"bool"}],"stateMutability":"view","type":"function"},{"inputs":[{"internalType":"address","name":"wallet","type":"address"}],"name":"getStudentInfo","outputs":[{"internalType":"string","name":"","type":"string"},{"internalType":"bool","name":"","type":"bool"},{"internalType":"uint256","name":"","type":"uint256"}],"stateMutability":"view","type":"function"},{"inputs":[{"internalType":"string","name":"studentId","type":"string"},{"internalType":"string","name":"courseId","type":"string"}],"name":"isEnrolled","outputs":[{"internalType":"bool","name":"","type":"bool"}],"stateMutability":"view","type":"function"},{"inputs":[{"internalType":"uint256","name":"","type":"uint256"}],"name":"ledger","outputs":[{"internalType":"uint256","name":"timestamp","type":"uint256"},{"internalType":"string","name":"studentId","type":"string"},{"internalType":"string","name":"courseId","type":"string"},{"internalType":"string","name":"action","type":"string"},{"internalType":"bool","name":"success","type":"bool"}],"stateMutability":"view","type":"function"},{"inputs":[{"internalType":"string","name":"studentId","type":"string"}],"name":"registerStudent","outputs":[],"stateMutability":"nonpayable","type":"function"},{"inputs":[],"name":"registrationEnd","outputs":[{"internalType":"uint256","name":"","type":"uint256"}],"stateMutability":"view","type":"function"},{"inputs":[],"name":"registrationStart","outputs":[{"internalType":"uint256","name":"","type":"uint256"}],"stateMutability":"view","type":"function"},{"inputs":[{"internalType":"uint256","name":"start","type":"uint256"},{"internalType":"uint256","name":"end","type":"uint256"}],"name":"setRegistrationWindow","outputs":[],"stateMutability":"nonpayable","type":"function"},{"inputs":[{"internalType":"string","name":"","type":"string"}],"name":"studentCourseCount","outputs":[{"internalType":"uint256","name":"","type":"uint256"}],"stateMutability":"view","type":"function"},{"inputs":[{"internalType":"string","name":"","type":"string"}],"name":"studentIdExists","outputs":[{"internalType":"bool","name":"","type":"bool"}],"stateMutability":"view","type":"function"},{"inputs":[{"internalType":"string","name":"","type":"string"}],"name":"studentIdToWallet","outputs":[{"internalType":"address","name":"","type":"address"}],"stateMutability":"view","type":"function"},{"inputs":[{"internalType":"address","name":"","type":"address"}],"name":"students","outputs":[{"internalType":"string","name":"studentId","type":"string"},{"internalType":"address","name":"wallet","type":"address"},{"internalType":"bool","name":"isRegistered","type":"bool"}],"stateMutability":"view","type":"function"},{"inputs":[{"internalType":"string","name":"courseId","type":"string"},{"internalType":"bool","name":"active","type":"bool"}],"name":"toggleCourse","outputs":[],"stateMutability":"nonpayable","type":"function"},{"inputs":[{"internalType":"string","name":"courseId","type":"string"},{"internalType":"uint256","name":"newTotal","type":"uint256"}],"name":"updateSeats","outputs":[],"stateMutability":"nonpayable","type":"function"}],"compiler":{"version":"0.8.19+commit.7dd6d404","evm_version":"istanbul","optimizer":{"enabled":true,"runs":200}},"contractName":"CourseRegistration","language":"Solidity","natspec":{"methods":{},"kind":"dev","version":1},"opcodes":"PUSH1 0x80 PUSH1 0x40 MSTORE CALLVALUE DUP1 ISZERO PUSH2 0x10 JUMPI PUSH1 0x0 DUP1 REVERT JUMPDEST POP PUSH1 0x4 CALLDATASIZE LT PUSH2 0x18E JUMPI PUSH1 0x0 CALLDATALOAD PUSH1 0xE0 SHR DUP1 PUSH4 0x67B09CDB GT PUSH2 0xDE JUMPI DUP1 PUSH4 0x9E00FFBA GT PUSH2 0x97 JUMPI DUP1 PUSH4 0xC2F8809E GT PUSH2 0x71 JUMPI DUP1 PUSH4 0xC2F8809E EQ PUSH2 0x427 JUMPI DUP1 PUSH4 0xD663D0D6 EQ PUSH2 0x44C JUMPI DUP1 PUSH4 0xDA618161 EQ PUSH2 0x45F JUMPI DUP1 PUSH4 0xF851A440 EQ PUSH2 0x484 JUMPI PUSH1 0x0 DUP1 REVERT JUMPDEST DUP1 PUSH4 0x9E00FFBA EQ PUSH2 0x3E9 JUMPI DUP1 PUSH4 0xA6C807A9 EQ PUSH2 0x3FC JUMPI DUP1 PUSH4 0xB4062A31 EQ PUSH2 0x41E JUMPI PUSH1 0x0 DUP1 REVERT JUMPDEST DUP1 PUSH4 0x67B09CDB EQ PUSH2 0x2E6 JUMPI DUP1 PUSH4 0x70BA913C EQ PUSH2 0x2F9 JUMPI DUP1 PUSH4 0x71E17445 EQ PUSH2 0x345 JUMPI DUP1 PUSH4 0x7D01E83C EQ PUSH2 0x358 JUMPI DUP1 PUSH4 0x84EBF8AE EQ PUSH2 0x360 JUMPI DUP1 PUSH4 0x8C598EC3 EQ PUSH2 0x3BB JUMPI PUSH1 0x0 DUP1 REVERT JUMPDEST DUP1 PUSH4 0x44A8EF19 GT PUSH2 0x14B JUMPI DUP1 PUSH4 0x560FBD47 GT PUSH2 0x125 JUMPI DUP1 PUSH4 0x560FBD47 EQ PUSH2 0x27C JUMPI DUP1 PUSH4 0x5975C2FB EQ PUSH2 0x28F JUMPI DUP1 PUSH4 0x5D1C6DCE EQ PUSH2 0x2A2 JUMPI DUP1 PUSH4 0x60A0BDDA EQ PUSH2 0x2C6 JUMPI PUSH1 0x0 DUP1 REVERT JUMPDEST DUP1 PUSH4 0x44A8EF19 EQ PUSH2 0x232 JUMPI DUP1 PUSH4 0x4B82CAEC EQ PUSH2 0x247 JUMPI DUP1 PUSH4 0x5310B551 EQ PUSH2 0x269 JUMPI PUSH1 0x0 DUP1 REVERT JUMPDEST DUP1 PUSH4 0x10A7FD7B EQ PUSH2 0x193 JUMPI DUP1 PUSH4 0x11C83ABB EQ PUSH2 0x1C0 JUMPI DUP1 PUSH4 0x13446A75 EQ PUSH2 0x1F9 JUMPI DUP1 PUSH4 0x2306F600 EQ PUSH2 0x202 JUMPI DUP1 PUSH4 0x2359B7B8 EQ PUSH2 0x20A JUMPI DUP1 PUSH4 0x43EC5665 EQ PUSH2 0x21F JUMPI JUMPDEST PUSH1 0x0 DUP1 REVERT JUMPDEST PUSH2 0x1A6 PUSH2 0x1A1 CALLDATASIZE PUSH1 0x4 PUSH2 0x1E90 JUMP JUMPDEST PUSH2 0x497 JUMP JUMPDEST PUSH1 0x40 MLOAD PUSH2 0x1B7 SWAP6 SWAP5 SWAP4 SWAP3 SWAP2 SWAP1 PUSH2 0x1EF9 JUMP JUMPDEST PUSH1 0x40 MLOAD DUP1 SWAP2 SUB SWAP1 RETURN JUMPDEST PUSH2 0x1EB PUSH2 0x1CE CALLDATASIZE PUSH1 0x4 PUSH2 0x1FF0 JUMP JUMPDEST DUP1 MLOAD PUSH1 0x20 DUP2 DUP4 ADD DUP2 ADD DUP1 MLOAD PUSH1 0x6 DUP3 MSTORE SWAP3 DUP3 ADD SWAP2 SWAP1 SWAP4 ADD KECCAK256 SWAP2 MSTORE SLOAD DUP2 JUMP JUMPDEST PUSH1 0x40 MLOAD SWAP1 DUP2 MSTORE PUSH1 0x20 ADD PUSH2 0x1B7 JUMP JUMPDEST PUSH2 0x1EB PUSH1 0xA SLOAD DUP2 JUMP JUMPDEST PUSH1 0x8 SLOAD PUSH2 0x1EB JUMP JUMPDEST PUSH2 0x212 PUSH2 0x674 JUMP JUMPDEST PUSH1 0x40 MLOAD PUSH2 0x1B7 SWAP2 SWAP1 PUSH2 0x202D JUMP JUMPDEST PUSH2 0x1A6 PUSH2 0x22D CALLDATASIZE PUSH1 0x4 PUSH2 0x1E90 JUMP JUMPDEST PUSH2 0x74D JUMP JUMPDEST PUSH2 0x245 PUSH2 0x240 CALLDATASIZE PUSH1 0x4 PUSH2 0x208F JUMP JUMPDEST PUSH2 0x99E JUMP JUMPDEST STOP JUMPDEST PUSH2 0x25A PUSH2 0x255 CALLDATASIZE PUSH1 0x4 PUSH2 0x20FC JUMP JUMPDEST PUSH2 0xA8D JUMP JUMPDEST PUSH1 0x40 MLOAD PUSH2 0x1B7 SWAP4 SWAP3 SWAP2 SWAP1 PUSH2 0x212C JUMP JUMPDEST PUSH2 0x245 PUSH2 0x277 CALLDATASIZE PUSH1 0x4 PUSH2 0x1FF0 JUMP JUMPDEST PUSH2 0xB78 JUMP JUMPDEST PUSH2 0x245 PUSH2 0x28A CALLDATASIZE PUSH1 0x4 PUSH2 0x2151 JUMP JUMPDEST PUSH2 0xEBF JUMP JUMPDEST PUSH2 0x245 PUSH2 0x29D CALLDATASIZE PUSH1 0x4 PUSH2 0x2196 JUMP JUMPDEST PUSH2 0x1008 JUMP JUMPDEST PUSH2 0x2B5 PUSH2 0x2B0 CALLDATASIZE PUSH1 0x4 PUSH2 0x1FF0 JUMP JUMPDEST PUSH2 0x10B5 JUMP JUMPDEST PUSH1 0x40 MLOAD PUSH2 0x1B7 SWAP6 SWAP5 SWAP4 SWAP3 SWAP2 SWAP1 PUSH2 0x21ED JUMP JUMPDEST PUSH2 0x2D9 PUSH2 0x2D4 CALLDATASIZE PUSH1 0x4 PUSH2 0x1E90 JUMP JUMPDEST PUSH2 0x1203 JUMP JUMPDEST PUSH1 0x40 MLOAD PUSH2 0x1B7 SWAP2 SWAP1 PUSH2 0x2232 JUMP JUMPDEST PUSH2 0x245 PUSH2 0x2F4 CALLDATASIZE PUSH1 0x4 PUSH2 0x1FF0 JUMP JUMPDEST PUSH2 0x12AF JUMP JUMPDEST PUSH2 0x32D PUSH2 0x307 CALLDATASIZE PUSH1 0x4 PUSH2 0x1FF0 JUMP JUMPDEST DUP1 MLOAD PUSH1 0x20 DUP2 DUP4 ADD DUP2 ADD DUP1 MLOAD PUSH1 0x4 DUP3 MSTORE SWAP3 DUP3 ADD SWAP2 SWAP1 SWAP4 ADD KECCAK256 SWAP2 MSTORE SLOAD PUSH1 0x1 PUSH1 0x1 PUSH1 0xA0 SHL SUB AND DUP2 JUMP JUMPDEST PUSH1 0x40 MLOAD PUSH1 0x1 PUSH1 0x1 PUSH1 0xA0 SHL SUB SWAP1 SWAP2 AND DUP2 MSTORE PUSH1 0x20 ADD PUSH2 0x1B7 JUMP JUMPDEST PUSH2 0x245 PUSH2 0x353 CALLDATASIZE PUSH1 0x4 PUSH2 0x1FF0 JUMP JUMPDEST PUSH2 0x17BA JUMP JUMPDEST PUSH2 0x1EB PUSH1 0x4 DUP2 JUMP JUMPDEST PUSH2 0x3AB PUSH2 0x36E CALLDATASIZE PUSH1 0x4 PUSH2 0x2245 JUMP JUMPDEST DUP2 MLOAD PUSH1 0x20 DUP2 DUP5 ADD DUP2 ADD DUP1 MLOAD PUSH1 0x5 DUP3 MSTORE SWAP3 DUP3 ADD SWAP5 DUP3 ADD SWAP5 SWAP1 SWAP5 KECCAK256 SWAP2 SWAP1 SWAP4 MSTORE DUP2 MLOAD DUP1 DUP4 ADD DUP5 ADD DUP1 MLOAD SWAP3 DUP2 MSTORE SWAP1 DUP5 ADD SWAP3 SWAP1 SWAP4 ADD SWAP2 SWAP1 SWAP2 KECCAK256 SWAP2 MSTORE SLOAD PUSH1 0xFF AND DUP2 JUMP JUMPDEST PUSH1 0x40 MLOAD SWAP1 ISZERO ISZERO DUP2 MSTORE PUSH1 0x20 ADD PUSH2 0x1B7 JUMP JUMPDEST PUSH2 0x3AB PUSH2 0x3C9 CALLDATASIZE PUSH1 0x4 PUSH2 0x1FF0 JUMP JUMPDEST DUP1 MLOAD PUSH1 0x20 DUP2 DUP4 ADD DUP2 ADD DUP1 MLOAD PUSH1 0x3 DUP3 MSTORE SWAP3 DUP3 ADD SWAP2 SWAP1 SWAP4 ADD KECCAK256 SWAP2 MSTORE SLOAD PUSH1 0xFF AND DUP2 JUMP JUMPDEST PUSH2 0x3AB PUSH2 0x3F7 CALLDATASIZE PUSH1 0x4 PUSH2 0x2245 JUMP JUMPDEST PUSH2 0x1A03 JUMP JUMPDEST PUSH2 0x40F PUSH2 0x40A CALLDATASIZE PUSH1 0x4 PUSH2 0x20FC JUMP JUMPDEST PUSH2 0x1A4D JUMP JUMPDEST PUSH1 0x40 MLOAD PUSH2 0x1B7 SWAP4 SWAP3 SWAP2 SWAP1 PUSH2 0x22A9 JUMP JUMPDEST PUSH2 0x1EB PUSH1 0x9 SLOAD DUP2 JUMP JUMPDEST PUSH2 0x42F PUSH2 0x1B07 JUMP JUMPDEST PUSH1 0x40 DUP1 MLOAD SWAP4 DUP5 MSTORE PUSH1 0x20 DUP5 ADD SWAP3 SWAP1 SWAP3 MSTORE ISZERO ISZERO SWAP1 DUP3 ADD MSTORE PUSH1 0x60 ADD PUSH2 0x1B7 JUMP JUMPDEST PUSH2 0x245 PUSH2 0x45A CALLDATASIZE PUSH1 0x4 PUSH2 0x22DC JUMP JUMPDEST PUSH2 0x1B56 JUMP JUMPDEST PUSH2 0x472 PUSH2 0x46D CALLDATASIZE PUSH1 0x4 PUSH2 0x1FF0 JUMP JUMPDEST PUSH2 0x1BD4 JUMP JUMPDEST PUSH1 0x40 MLOAD PUSH2 0x1B7 SWAP7 SWAP6 SWAP5 SWAP4 SWAP3 SWAP2 SWAP1 PUSH2 0x22FE JUMP JUMPDEST PUSH1 0x0 SLOAD PUSH2 0x32D SWAP1 PUSH1 0x1 PUSH1 0x1 PUSH1 0xA0 SHL SUB AND DUP2 JUMP JUMPDEST PUSH1 0x8 DUP2 DUP2 SLOAD DUP2 LT PUSH2 0x4A7 JUMPI PUSH1 0x0 DUP1 REVERT JUMPDEST PUSH1 0x0 SWAP2 DUP3 MSTORE PUSH1 0x20 SWAP1 SWAP2 KECCAK256 PUSH1 0x5 SWAP1 SWAP2 MUL ADD DUP1 SLOAD PUSH1 0x1 DUP3 ADD DUP1 SLOAD SWAP2 SWAP4 POP SWAP1 PUSH2 0x4CC SWAP1 PUSH2 0x234B JUMP JUMPDEST DUP1 PUSH1 0x1F ADD PUSH1 0x20 DUP1 SWAP2 DIV MUL PUSH1 0x20 ADD PUSH1 0x40 MLOAD SWAP1 DUP2 ADD PUSH1 0x40 MSTORE DUP1 SWAP3 SWAP2 SWAP1 DUP2 DUP2 MSTORE PUSH1 0x20 ADD DUP3 DUP1 SLOAD PUSH2 0x4F8 SWAP1 PUSH2 0x234B JUMP JUMPDEST DUP1 ISZERO PUSH2 0x545 JUMPI DUP1 PUSH1 0x1F LT PUSH2 0x51A JUMPI PUSH2 0x100 DUP1 DUP4 SLOAD DIV MUL DUP4 MSTORE SWAP2 PUSH1 0x20 ADD SWAP2 PUSH2 0x545 JUMP JUMPDEST DUP3 ADD SWAP2 SWAP1 PUSH1 0x0 MSTORE PUSH1 0x20 PUSH1 0x0 KECCAK256 SWAP1 JUMPDEST DUP2 SLOAD DUP2 MSTORE SWAP1 PUSH1 0x1 ADD SWAP1 PUSH1 0x20 ADD DUP1 DUP4 GT PUSH2 0x528 JUMPI DUP3 SWAP1 SUB PUSH1 0x1F AND DUP3 ADD SWAP2 JUMPDEST POP POP POP POP POP SWAP1 DUP1 PUSH1 0x2 ADD DUP1 SLOAD PUSH2 0x55A SWAP1 PUSH2 0x234B JUMP JUMPDEST DUP1 PUSH1 0x1F ADD PUSH1 0x20 DUP1 SWAP2 DIV MUL PUSH1 0x20 ADD PUSH1 0x40 MLOAD SWAP1 DUP2 ADD PUSH1 0x40 MSTORE DUP1 SWAP3 SWAP2 SWAP1 DUP2 DUP2 MSTORE PUSH1 0x20 ADD DUP3 DUP1 SLOAD PUSH2 0x586 SWAP1 PUSH2 0x234B JUMP JUMPDEST DUP1 ISZERO PUSH2 0x5D3 JUMPI DUP1 PUSH1 0x1F LT PUSH2 0x5A8 JUMPI PUSH2 0x100 DUP1 DUP4 SLOAD DIV MUL DUP4 MSTORE SWAP2 PUSH1 0x20 ADD SWAP2 PUSH2 0x5D3 JUMP JUMPDEST DUP3 ADD SWAP2 SWAP1 PUSH1 0x0 MSTORE PUSH1 0x20 PUSH1 0x0 KECCAK256 SWAP1 JUMPDEST DUP2 SLOAD DUP2 MSTORE SWAP1 PUSH1 0x1 ADD SWAP1 PUSH1 0x20 ADD DUP1 DUP4 GT PUSH2 0x5B6 JUMPI DUP3 SWAP1 SUB PUSH1 0x1F AND DUP3 ADD SWAP2 JUMPDEST POP POP POP POP POP SWAP1 DUP1 PUSH1 0x3 ADD DUP1 SLOAD PUSH2 0x5E8 SWAP1 PUSH2 0x234B JUMP JUMPDEST DUP1 PUSH1 0x1F ADD PUSH1 0x20 DUP1 SWAP2 DIV MUL PUSH1 0x20 ADD PUSH1 0x40 MLOAD SWAP1 DUP2 ADD PUSH1 0x40 MSTORE DUP1 SWAP3 SWAP2 SWAP1 DUP2 DUP2 MSTORE PUSH1 0x20 ADD DUP3 DUP1 SLOAD PUSH2 0x614 SWAP1 PUSH2 0x234B JUMP JUMPDEST DUP1 ISZERO PUSH2 0x661 JUMPI DUP1 PUSH1 0x1F LT PUSH2 0x636 JUMPI PUSH2 0x100 DUP1 DUP4 SLOAD DIV MUL DUP4 MSTORE SWAP2 PUSH1 0x20 ADD SWAP2 PUSH2 0x661 JUMP JUMPDEST DUP3 ADD SWAP2 SWAP1 PUSH1 0x0 MSTORE PUSH1 0x20 PUSH1 0x0 KECCAK256 SWAP1 JUMPDEST DUP2 SLOAD DUP2 MSTORE SWAP1 PUSH1 0x1 ADD SWAP1 PUSH1 0x20 ADD DUP1 DUP4 GT PUSH2 0x644 JUMPI DUP3 SWAP1 SUB PUSH1 0x1F AND DUP3 ADD SWAP2 JUMPDEST POP POP POP PUSH1 0x4 SWAP1 SWAP4 ADD SLOAD SWAP2 SWAP3 POP POP PUSH1 0xFF AND DUP6 JUMP JUMPDEST PUSH1 0x60 PUSH1 0x7 DUP1 SLOAD DUP1 PUSH1 0x20 MUL PUSH1 0x20 ADD PUSH1 0x40 MLOAD SWAP1 DUP2 ADD PUSH1 0x40 MSTORE DUP1 SWAP3 SWAP2 SWAP1 DUP2 DUP2 MSTORE PUSH1 0x20 ADD PUSH1 0x0 SWAP1 JUMPDEST DUP3 DUP3 LT ISZERO PUSH2 0x744 JUMPI DUP4 DUP3 SWAP1 PUSH1 0x0 MSTORE PUSH1 0x20 PUSH1 0x0 KECCAK256 ADD DUP1 SLOAD PUSH2 0x6B7 SWAP1 PUSH2 0x234B JUMP JUMPDEST DUP1 PUSH1 0x1F ADD PUSH1 0x20 DUP1 SWAP2 DIV MUL PUSH1 0x20 ADD PUSH1 0x40 MLOAD SWAP1 DUP2 ADD PUSH1 0x40 MSTORE DUP1 SWAP3 SWAP2 SWAP1 DUP2 DUP2 MSTORE PUSH1 0x20 ADD DUP3 DUP1 SLOAD PUSH2 0x6E3 SWAP1 PUSH2 0x234B JUMP JUMPDEST DUP1 ISZERO PUSH2 0x730 JUMPI DUP1 PUSH1 0x1F LT PUSH2 0x705 JUMPI PUSH2 0x100 DUP1 DUP4 SLOAD DIV MUL DUP4 MSTORE SWAP2 PUSH1 0x20 ADD SWAP2 PUSH2 0x730 JUMP JUMPDEST DUP3 ADD SWAP2 SWAP1 PUSH1 0x0 MSTORE PUSH1 0x20 PUSH1 0x0 KECCAK256 SWAP1 JUMPDEST DUP2 SLOAD DUP2 MSTORE SWAP1 PUSH1 0x1 ADD SWAP1 PUSH1 0x20 ADD DUP1 DUP4 GT PUSH2 0x713 JUMPI DUP3 SWAP1 SUB PUSH1 0x1F AND DUP3 ADD SWAP2 JUMPDEST POP POP POP POP POP DUP2 MSTORE PUSH1 0x20 ADD SWAP1 PUSH1 0x1 ADD SWAP1 PUSH2 0x698 JUMP JUMPDEST POP POP POP POP SWAP1 POP SWAP1 JUMP JUMPDEST PUSH1 0x0 PUSH1 0x60 DUP1 PUSH1 0x60 PUSH1 0x0 PUSH1 0x8 DUP1 SLOAD SWAP1 POP DUP7 LT PUSH2 0x79E JUMPI PUSH1 0x40 MLOAD PUSH3 0x461BCD PUSH1 0xE5 SHL DUP2 MSTORE PUSH1 0x20 PUSH1 0x4 DUP3 ADD MSTORE PUSH1 0xC PUSH1 0x24 DUP3 ADD MSTORE PUSH12 0x4F7574206F662072616E6765 PUSH1 0xA0 SHL PUSH1 0x44 DUP3 ADD MSTORE PUSH1 0x64 ADD JUMPDEST PUSH1 0x40 MLOAD DUP1 SWAP2 SUB SWAP1 REVERT JUMPDEST PUSH1 0x0 PUSH1 0x8 DUP8 DUP2 SLOAD DUP2 LT PUSH2 0x7B3 JUMPI PUSH2 0x7B3 PUSH2 0x2385 JUMP JUMPDEST SWAP1 PUSH1 0x0 MSTORE PUSH1 0x20 PUSH1 0x0 KECCAK256 SWAP1 PUSH1 0x5 MUL ADD SWAP1 POP DUP1 PUSH1 0x0 ADD SLOAD DUP2 PUSH1 0x1 ADD DUP3 PUSH1 0x2 ADD DUP4 PUSH1 0x3 ADD DUP5 PUSH1 0x4 ADD PUSH1 0x0 SWAP1 SLOAD SWAP1 PUSH2 0x100 EXP SWAP1 DIV PUSH1 0xFF AND DUP4 DUP1 SLOAD PUSH2 0x7F2 SWAP1 PUSH2 0x234B JUMP JUMPDEST DUP1 PUSH1 0x1F ADD PUSH1 0x20 DUP1 SWAP2 DIV MUL PUSH1 0x20 ADD PUSH1 0x40 MLOAD SWAP1 DUP2 ADD PUSH1 0x40 MSTORE DUP1 SWAP3 SWAP2 SWAP1 DUP2 DUP2 MSTORE PUSH1 0x20 ADD DUP3 DUP1 SLOAD PUSH2 0x81E SWAP1 PUSH2 0x234B JUMP JUMPDEST DUP1 ISZERO PUSH2 0x86B JUMPI DUP1 PUSH1 0x1F LT PUSH2 0x840 JUMPI PUSH2 0x100 DUP1 DUP4 SLOAD DIV MUL DUP4 MSTORE SWAP2 PUSH1 0x20 ADD SWAP2 PUSH2 0x86B JUMP JUMPDEST DUP3 ADD SWAP2 SWAP1 PUSH1 0x0 MSTORE PUSH1 0x20 PUSH1 0x0 KECCAK256 SWAP1 JUMPDEST DUP2 SLOAD DUP2 MSTORE SWAP1 PUSH1 0x1 ADD SWAP1 PUSH1 0x20 ADD DUP1 DUP4 GT PUSH2 0x84E JUMPI DUP3 SWAP1 SUB PUSH1 0x1F AND DUP3 ADD SWAP2 JUMPDEST POP POP POP POP POP SWAP4 POP DUP3 DUP1 SLOAD PUSH2 0x87E SWAP1 PUSH2 0x234B JUMP JUMPDEST DUP1 PUSH1 0x1F ADD PUSH1 0x20 DUP1 SWAP2 DIV MUL PUSH1 0x20 ADD PUSH1 0x40 MLOAD SWAP1 DUP2 ADD PUSH1 0x40 MSTORE DUP1 SWAP3 SWAP2 SWAP1 DUP2 DUP2 MSTORE PUSH1 0x20 ADD DUP3 DUP1 SLOAD PUSH2 0x8AA SWAP1 PUSH2 0x234B JUMP JUMPDEST DUP1 ISZERO PUSH2 0x8F7 JUMPI DUP1 PUSH1 0x1F LT PUSH2 0x8CC JUMPI PUSH2 0x100 DUP1 DUP4 SLOAD DIV MUL DUP4 MSTORE SWAP2 PUSH1 0x20 ADD SWAP2 PUSH2 0x8F7 JUMP JUMPDEST DUP3 ADD SWAP2 SWAP1 PUSH1 0x0 MSTORE PUSH1 0x20 PUSH1 0x0 KECCAK256 SWAP1 JUMPDEST DUP2 SLOAD DUP2 MSTORE SWAP1 PUSH1 0x1 ADD SWAP1 PUSH1 0x20 ADD DUP1 DUP4 GT PUSH2 0x8DA JUMPI DUP3 SWAP1 SUB PUSH1 0x1F AND DUP3 ADD SWAP2 JUMPDEST POP POP POP POP POP SWAP3 POP DUP2 DUP1 SLOAD PUSH2 0x90A SWAP1 PUSH2 0x234B JUMP JUMPDEST DUP1 PUSH1 0x1F ADD PUSH1 0x20 DUP1 SWAP2 DIV MUL PUSH1 0x20 ADD PUSH1 0x40 MLOAD SWAP1 DUP2 ADD PUSH1 0x40 MSTORE DUP1 SWAP3 SWAP2 SWAP1 DUP2 DUP2 MSTORE PUSH1 0x20 ADD DUP3 DUP1 SLOAD PUSH2 0x936 SWAP1 PUSH2 0x234B JUMP JUMPDEST DUP1 ISZERO PUSH2 0x983 JUMPI DUP1 PUSH1 0x1F LT PUSH2 0x958 JUMPI PUSH2 0x100 DUP1 DUP4 SLOAD DIV MUL DUP4 MSTORE SWAP2 PUSH1 0x20 ADD SWAP2 PUSH2 0x983 JUMP JUMPDEST DUP3 ADD SWAP2 SWAP1 PUSH1 0x0 MSTORE PUSH1 0x20 PUSH1 0x0 KECCAK256 SWAP1 JUMPDEST DUP2 SLOAD DUP2 MSTORE SWAP1 PUSH1 0x1 ADD SWAP1 PUSH1 0x20 ADD DUP1 DUP4 GT PUSH2 0x966 JUMPI DUP3 SWAP1 SUB PUSH1 0x1F AND DUP3 ADD SWAP2 JUMPDEST POP POP POP POP POP SWAP2 POP SWAP6 POP SWAP6 POP SWAP6 POP SWAP6 POP SWAP6 POP POP SWAP2 SWAP4 SWAP6 SWAP1 SWAP3 SWAP5 POP JUMP JUMPDEST PUSH1 0x0 SLOAD PUSH1 0x1 PUSH1 0x1 PUSH1 0xA0 SHL SUB AND CALLER EQ PUSH2 0x9C8 JUMPI PUSH1 0x40 MLOAD PUSH3 0x461BCD PUSH1 0xE5 SHL DUP2 MSTORE PUSH1 0x4 ADD PUSH2 0x795 SWAP1 PUSH2 0x239B JUMP JUMPDEST PUSH1 0x1 DUP4 PUSH1 0x40 MLOAD PUSH2 0x9D8 SWAP2 SWAP1 PUSH2 0x23D2 JUMP JUMPDEST SWAP1 DUP2 MSTORE PUSH1 0x40 MLOAD SWAP1 DUP2 SWAP1 SUB PUSH1 0x20 ADD SWAP1 KECCAK256 DUP1 SLOAD PUSH2 0x9F2 SWAP1 PUSH2 0x234B JUMP JUMPDEST ISZERO SWAP1 POP PUSH2 0xA39 JUMPI PUSH1 0x40 MLOAD PUSH3 0x461BCD PUSH1 0xE5 SHL DUP2 MSTORE PUSH1 0x20 PUSH1 0x4 DUP3 ADD MSTORE PUSH1 0x15 PUSH1 0x24 DUP3 ADD MSTORE PUSH21 0x436F7572736520616C726561647920657869737473 PUSH1 0x58 SHL PUSH1 0x44 DUP3 ADD MSTORE PUSH1 0x64 ADD PUSH2 0x795 JUMP JUMPDEST PUSH1 0x0 DUP2 GT PUSH2 0xA7D JUMPI PUSH1 0x40 MLOAD PUSH3 0x461BCD PUSH1 0xE5 SHL DUP2 MSTORE PUSH1 0x20 PUSH1 0x4 DUP3 ADD MSTORE PUSH1 0x11 PUSH1 0x24 DUP3 ADD MSTORE PUSH17 0x5365617473206D757374206265203E203 PUSH1 0x7C SHL PUSH1 0x44 DUP3 ADD MSTORE PUSH1 0x64 ADD PUSH2 0x795 JUMP JUMPDEST PUSH2 0xA88 DUP4 DUP4 DUP4 PUSH2 0x1D84 JUMP JUMPDEST POP POP POP JUMP JUMPDEST PUSH1 0x1 PUSH1 0x1 PUSH1 0xA0 SHL SUB DUP2 AND PUSH1 0x0 SWAP1 DUP2 MSTORE PUSH1 0x2 PUSH1 0x20 MSTORE PUSH1 0x40 DUP1 DUP3 KECCAK256 PUSH1 0x1 DUP2 ADD SLOAD SWAP2 MLOAD PUSH1 0x60 SWAP4 SWAP3 DUP4 SWAP3 SWAP2 DUP3 SWAP2 PUSH1 0x1 PUSH1 0xA0 SHL SWAP1 DIV PUSH1 0xFF AND SWAP1 PUSH1 0x6 SWAP1 PUSH2 0xACF SWAP1 DUP5 SWAP1 PUSH2 0x23EE JUMP JUMPDEST SWAP1 DUP2 MSTORE PUSH1 0x20 ADD PUSH1 0x40 MLOAD DUP1 SWAP2 SUB SWAP1 KECCAK256 SLOAD DUP3 DUP1 SLOAD PUSH2 0xAEA SWAP1 PUSH2 0x234B JUMP JUMPDEST DUP1 PUSH1 0x1F ADD PUSH1 0x20 DUP1 SWAP2 DIV MUL PUSH1 0x20 ADD PUSH1 0x40 MLOAD SWAP1 DUP2 ADD PUSH1 0x40 MSTORE DUP1 SWAP3 SWAP2 SWAP1 DUP2 DUP2 MSTORE PUSH1 0x20 ADD DUP3 DUP1 SLOAD PUSH2 0xB16 SWAP1 PUSH2 0x234B JUMP JUMPDEST DUP1 ISZERO PUSH2 0xB63 JUMPI DUP1 PUSH1 0x1F LT PUSH2 0xB38 JUMPI PUSH2 0x100 DUP1 DUP4 SLOAD DIV MUL DUP4 MSTORE SWAP2 PUSH1 0x20 ADD SWAP2 PUSH2 0xB63 JUMP JUMPDEST DUP3 ADD SWAP2 SWAP1 PUSH1 0x0 MSTORE PUSH1 0x20 PUSH1 0x0 KECCAK256 SWAP1 JUMPDEST DUP2 SLOAD DUP2 MSTORE SWAP1 PUSH1 0x1 ADD SWAP1 PUSH1 0x20 ADD DUP1 DUP4 GT PUSH2 0xB46 JUMPI DUP3 SWAP1 SUB PUSH1 0x1F AND DUP3 ADD SWAP2 JUMPDEST POP POP POP POP POP SWAP3 POP SWAP4 POP SWAP4 POP SWAP4 POP POP SWAP2 SWAP4 SWAP1 SWAP3 POP JUMP JUMPDEST CALLER PUSH1 0x0 SWAP1 DUP2 MSTORE PUSH1 0x2 PUSH1 0x20 MSTORE PUSH1 0x40 SWAP1 KECCAK256 PUSH1 0x1 DUP2 ADD SLOAD PUSH1 0x1 PUSH1 0xA0 SHL SWAP1 DIV PUSH1 0xFF AND PUSH2 0xBDB JUMPI PUSH1 0x40 MLOAD PUSH3 0x461BCD PUSH1 0xE5 SHL DUP2 MSTORE PUSH1 0x20 PUSH1 0x4 DUP3 ADD MSTORE PUSH1 0x16 PUSH1 0x24 DUP3 ADD MSTORE PUSH22 0x14DD1D59195B9D081B9BDD081C9959DA5CDD195C9959 PUSH1 0x52 SHL PUSH1 0x44 DUP3 ADD MSTORE PUSH1 0x64 ADD PUSH2 0x795 JUMP JUMPDEST PUSH1 0x40 MLOAD PUSH1 0x5 SWAP1 PUSH2 0xBEC SWAP1 DUP4 SWAP1 PUSH2 0x23EE JUMP JUMPDEST SWAP1 DUP2 MSTORE PUSH1 0x20 ADD PUSH1 0x40 MLOAD DUP1 SWAP2 SUB SWAP1 KECCAK256 DUP3 PUSH1 0x40 MLOAD PUSH2 0xC08 SWAP2 SWAP1 PUSH2 0x23D2 JUMP JUMPDEST SWAP1 DUP2 MSTORE PUSH1 0x40 MLOAD SWAP1 DUP2 SWAP1 SUB PUSH1 0x20 ADD SWAP1 KECCAK256 SLOAD PUSH1 0xFF AND PUSH2 0xC67 JUMPI PUSH1 0x40 MLOAD PUSH3 0x461BCD PUSH1 0xE5 SHL DUP2 MSTORE PUSH1 0x20 PUSH1 0x4 DUP3 ADD MSTORE PUSH1 0x1B PUSH1 0x24 DUP3 ADD MSTORE PUSH32 0x4E6F7420656E726F6C6C656420696E207468697320636F757273650000000000 PUSH1 0x44 DUP3 ADD MSTORE PUSH1 0x64 ADD PUSH2 0x795 JUMP JUMPDEST PUSH1 0x0 PUSH1 0x1 DUP4 PUSH1 0x40 MLOAD PUSH2 0xC79 SWAP2 SWAP1 PUSH2 0x23D2 JUMP JUMPDEST SWAP1 DUP2 MSTORE PUSH1 0x40 MLOAD SWAP1 DUP2 SWAP1 SUB PUSH1 0x20 ADD SWAP1 KECCAK256 PUSH1 0x3 DUP2 ADD DUP1 SLOAD SWAP2 SWAP3 POP PUSH1 0x0 PUSH2 0xC9C DUP4 PUSH2 0x247A JUMP JUMPDEST SWAP2 SWAP1 POP SSTORE POP PUSH1 0x0 PUSH1 0x5 DUP4 PUSH1 0x0 ADD PUSH1 0x40 MLOAD PUSH2 0xCB6 SWAP2 SWAP1 PUSH2 0x23EE JUMP JUMPDEST SWAP1 DUP2 MSTORE PUSH1 0x20 ADD PUSH1 0x40 MLOAD DUP1 SWAP2 SUB SWAP1 KECCAK256 DUP5 PUSH1 0x40 MLOAD PUSH2 0xCD2 SWAP2 SWAP1 PUSH2 0x23D2 JUMP JUMPDEST SWAP1 DUP2 MSTORE PUSH1 0x40 MLOAD SWAP1 DUP2 SWAP1 SUB PUSH1 0x20 ADD DUP2 KECCAK256 DUP1 SLOAD SWAP3 ISZERO ISZERO PUSH1 0xFF NOT SWAP1 SWAP4 AND SWAP3 SWAP1 SWAP3 OR SWAP1 SWAP2 SSTORE PUSH1 0x6 SWAP1 PUSH2 0xD01 SWAP1 DUP5 SWAP1 PUSH2 0x23EE JUMP JUMPDEST SWAP1 DUP2 MSTORE PUSH1 0x40 MLOAD SWAP1 DUP2 SWAP1 SUB PUSH1 0x20 ADD SWAP1 KECCAK256 DUP1 SLOAD SWAP1 PUSH1 0x0 PUSH2 0xD1E DUP4 PUSH2 0x247A JUMP JUMPDEST SWAP2 SWAP1 POP SSTORE POP PUSH1 0x8 PUSH1 0x40 MLOAD DUP1 PUSH1 0xA0 ADD PUSH1 0x40 MSTORE DUP1 TIMESTAMP DUP2 MSTORE PUSH1 0x20 ADD DUP5 PUSH1 0x0 ADD DUP1 SLOAD PUSH2 0xD45 SWAP1 PUSH2 0x234B JUMP JUMPDEST DUP1 PUSH1 0x1F ADD PUSH1 0x20 DUP1 SWAP2 DIV MUL PUSH1 0x20 ADD PUSH1 0x40 MLOAD SWAP1 DUP2 ADD PUSH1 0x40 MSTORE DUP1 SWAP3 SWAP2 SWAP1 DUP2 DUP2 MSTORE PUSH1 0x20 ADD DUP3 DUP1 SLOAD PUSH2 0xD71 SWAP1 PUSH2 0x234B JUMP JUMPDEST DUP1 ISZERO PUSH2 0xDBE JUMPI DUP1 PUSH1 0x1F LT PUSH2 0xD93 JUMPI PUSH2 0x100 DUP1 DUP4 SLOAD DIV MUL DUP4 MSTORE SWAP2 PUSH1 0x20 ADD SWAP2 PUSH2 0xDBE JUMP JUMPDEST DUP3 ADD SWAP2 SWAP1 PUSH1 0x0 MSTORE PUSH1 0x20 PUSH1 0x0 KECCAK256 SWAP1 JUMPDEST DUP2 SLOAD DUP2 MSTORE SWAP1 PUSH1 0x1 ADD SWAP1 PUSH1 0x20 ADD DUP1 DUP4 GT PUSH2 0xDA1 JUMPI DUP3 SWAP1 SUB PUSH1 0x1F AND DUP3 ADD SWAP2 JUMPDEST POP POP POP SWAP2 DUP4 MSTORE POP POP PUSH1 0x20 DUP1 DUP3 ADD DUP8 SWAP1 MSTORE PUSH1 0x40 DUP1 MLOAD DUP1 DUP3 ADD DUP3 MSTORE PUSH1 0x4 DUP2 MSTORE PUSH4 0x44524F5 PUSH1 0xE4 SHL DUP2 DUP5 ADD MSTORE SWAP1 DUP4 ADD MSTORE PUSH1 0x1 PUSH1 0x60 SWAP1 SWAP3 ADD DUP3 SWAP1 MSTORE DUP4 SLOAD DUP1 DUP4 ADD DUP6 SSTORE PUSH1 0x0 SWAP5 DUP6 MSTORE SWAP4 DUP2 SWAP1 KECCAK256 DUP4 MLOAD PUSH1 0x5 SWAP1 SWAP6 MUL ADD SWAP4 DUP5 SSTORE DUP3 ADD MLOAD SWAP2 SWAP3 SWAP2 SWAP1 DUP3 ADD SWAP1 PUSH2 0xE24 SWAP1 DUP3 PUSH2 0x24DF JUMP JUMPDEST POP PUSH1 0x40 DUP3 ADD MLOAD PUSH1 0x2 DUP3 ADD SWAP1 PUSH2 0xE39 SWAP1 DUP3 PUSH2 0x24DF JUMP JUMPDEST POP PUSH1 0x60 DUP3 ADD MLOAD PUSH1 0x3 DUP3 ADD SWAP1 PUSH2 0xE4E SWAP1 DUP3 PUSH2 0x24DF JUMP JUMPDEST POP PUSH1 0x80 SWAP2 SWAP1 SWAP2 ADD MLOAD PUSH1 0x4 SWAP1 SWAP2 ADD DUP1 SLOAD PUSH1 0xFF NOT AND SWAP2 ISZERO ISZERO SWAP2 SWAP1 SWAP2 OR SWAP1 SSTORE PUSH1 0x3 DUP2 ADD SLOAD PUSH1 0x2 DUP3 ADD SLOAD PUSH32 0x918815377050BDB6F6C2CF208FDD163CE8503E73E494FC90C8246A00B8E896F4 SWAP2 DUP5 SWAP2 DUP7 SWAP2 PUSH2 0xEA3 SWAP2 PUSH2 0x259F JUMP JUMPDEST PUSH1 0x40 MLOAD PUSH2 0xEB2 SWAP4 SWAP3 SWAP2 SWAP1 PUSH2 0x25B2 JUMP JUMPDEST PUSH1 0x40 MLOAD DUP1 SWAP2 SUB SWAP1 LOG1 POP POP POP JUMP JUMPDEST PUSH1 0x0 SLOAD PUSH1 0x1 PUSH1 0x1 PUSH1 0xA0 SHL SUB AND CALLER EQ PUSH2 0xEE9 JUMPI PUSH1 0x40 MLOAD PUSH3 0x461BCD PUSH1 0xE5 SHL DUP2 MSTORE PUSH1 0x4 ADD PUSH2 0x795 SWAP1 PUSH2 0x239B JUMP JUMPDEST PUSH1 0x1 DUP3 PUSH1 0x40 MLOAD PUSH2 0xEF9 SWAP2 SWAP1 PUSH2 0x23D2 JUMP JUMPDEST SWAP1 DUP2 MSTORE PUSH1 0x40 MLOAD SWAP1 DUP2 SWAP1 SUB PUSH1 0x20 ADD SWAP1 KECCAK256 DUP1 SLOAD PUSH2 0xF13 SWAP1 PUSH2 0x234B JUMP JUMPDEST SWAP1 POP PUSH1 0x0 SUB PUSH2 0xF34 JUMPI PUSH1 0x40 MLOAD PUSH3 0x461BCD PUSH1 0xE5 SHL DUP2 MSTORE PUSH1 0x4 ADD PUSH2 0x795 SWAP1 PUSH2 0x2659 JUMP JUMPDEST PUSH1 0x1 DUP3 PUSH1 0x40 MLOAD PUSH2 0xF44 SWAP2 SWAP1 PUSH2 0x23D2 JUMP JUMPDEST SWAP1 DUP2 MSTORE PUSH1 0x20 ADD PUSH1 0x40 MLOAD DUP1 SWAP2 SUB SWAP1 KECCAK256 PUSH1 0x3 ADD SLOAD DUP2 LT ISZERO PUSH2 0xFA5 JUMPI PUSH1 0x40 MLOAD PUSH3 0x461BCD PUSH1 0xE5 SHL DUP2 MSTORE PUSH1 0x20 PUSH1 0x4 DUP3 ADD MSTORE PUSH1 0x1C PUSH1 0x24 DUP3 ADD MSTORE PUSH32 0x43616E6E6F74207265647563652062656C6F7720656E726F6C6C656400000000 PUSH1 0x44 DUP3 ADD MSTORE PUSH1 0x64 ADD PUSH2 0x795 JUMP JUMPDEST DUP1 PUSH1 0x1 DUP4 PUSH1 0x40 MLOAD PUSH2 0xFB6 SWAP2 SWAP1 PUSH2 0x23D2 JUMP JUMPDEST SWAP1 DUP2 MSTORE PUSH1 0x20 ADD PUSH1 0x40 MLOAD DUP1 SWAP2 SUB SWAP1 KECCAK256 PUSH1 0x2 ADD DUP2 SWAP1 SSTORE POP PUSH32 0xBF6CDCF09A1046A04C838229F3ED494CC74B61EBD6CAA235F66FD1FFAAF06A95 DUP3 DUP3 PUSH1 0x40 MLOAD PUSH2 0xFFC SWAP3 SWAP2 SWAP1 PUSH2 0x2683 JUMP JUMPDEST PUSH1 0x40 MLOAD DUP1 SWAP2 SUB SWAP1 LOG1 POP POP JUMP JUMPDEST PUSH1 0x0 SLOAD PUSH1 0x1 PUSH1 0x1 PUSH1 0xA0 SHL SUB AND CALLER EQ PUSH2 0x1032 JUMPI PUSH1 0x40 MLOAD PUSH3 0x461BCD PUSH1 0xE5 SHL DUP2 MSTORE PUSH1 0x4 ADD PUSH2 0x795 SWAP1 PUSH2 0x239B JUMP JUMPDEST PUSH1 0x1 DUP3 PUSH1 0x40 MLOAD PUSH2 0x1042 SWAP2 SWAP1 PUSH2 0x23D2 JUMP JUMPDEST SWAP1 DUP2 MSTORE PUSH1 0x40 MLOAD SWAP1 DUP2 SWAP1 SUB PUSH1 0x20 ADD SWAP1 KECCAK256 DUP1 SLOAD PUSH2 0x105C SWAP1 PUSH2 0x234B JUMP JUMPDEST SWAP1 POP PUSH1 0x0 SUB PUSH2 0x107D JUMPI PUSH1 0x40 MLOAD PUSH3 0x461BCD PUSH1 0xE5 SHL DUP2 MSTORE PUSH1 0x4 ADD PUSH2 0x795 SWAP1 PUSH2 0x2659 JUMP JUMPDEST DUP1 PUSH1 0x1 DUP4 PUSH1 0x40 MLOAD PUSH2 0x108E SWAP2 SWAP1 PUSH2 0x23D2 JUMP JUMPDEST SWAP1 DUP2 MSTORE PUSH1 0x40 MLOAD SWAP1 DUP2 SWAP1 SUB PUSH1 0x20 ADD SWAP1 KECCAK256 PUSH1 0x4 ADD DUP1 SLOAD SWAP2 ISZERO ISZERO PUSH1 0xFF NOT SWAP1 SWAP3 AND SWAP2 SWAP1 SWAP2 OR SWAP1 SSTORE POP POP JUMP JUMPDEST DUP1 MLOAD PUSH1 0x20 DUP2 DUP4 ADD DUP2 ADD DUP1 MLOAD PUSH1 0x1 DUP3 MSTORE SWAP3 DUP3 ADD SWAP2 SWAP1 SWAP4 ADD KECCAK256 SWAP2 MSTORE DUP1 SLOAD DUP2 SWAP1 PUSH2 0x10DB SWAP1 PUSH2 0x234B JUMP JUMPDEST DUP1 PUSH1 0x1F ADD PUSH1 0x20 DUP1 SWAP2 DIV MUL PUSH1 0x20 ADD PUSH1 0x40 MLOAD SWAP1 DUP2 ADD PUSH1 0x40 MSTORE DUP1 SWAP3 SWAP2 SWAP1 DUP2 DUP2 MSTORE PUSH1 0x20 ADD DUP3 DUP1 SLOAD PUSH2 0x1107 SWAP1 PUSH2 0x234B JUMP JUMPDEST DUP1 ISZERO PUSH2 0x1154 JUMPI DUP1 PUSH1 0x1F LT PUSH2 0x1129 JUMPI PUSH2 0x100 DUP1 DUP4 SLOAD DIV MUL DUP4 MSTORE SWAP2 PUSH1 0x20 ADD SWAP2 PUSH2 0x1154 JUMP JUMPDEST DUP3 ADD SWAP2 SWAP1 PUSH1 0x0 MSTORE PUSH1 0x20 PUSH1 0x0 KECCAK256 SWAP1 JUMPDEST DUP2 SLOAD DUP2 MSTORE SWAP1 PUSH1 0x1 ADD SWAP1 PUSH1 0x20 ADD DUP1 DUP4 GT PUSH2 0x1137 JUMPI DUP3 SWAP1 SUB PUSH1 0x1F AND DUP3 ADD SWAP2 JUMPDEST POP POP POP POP POP SWAP1 DUP1 PUSH1 0x1 ADD DUP1 SLOAD PUSH2 0x1169 SWAP1 PUSH2 0x234B JUMP JUMPDEST DUP1 PUSH1 0x1F ADD PUSH1 0x20 DUP1 SWAP2 DIV MUL PUSH1 0x20 ADD PUSH1 0x40 MLOAD SWAP1 DUP2 ADD PUSH1 0x40 MSTORE DUP1 SWAP3 SWAP2 SWAP1 DUP2 DUP2 MSTORE PUSH1 0x20 ADD DUP3 DUP1 SLOAD PUSH2 0x1195 SWAP1 PUSH2 0x234B JUMP JUMPDEST DUP1 ISZERO PUSH2 0x11E2 JUMPI DUP1 PUSH1 0x1F LT PUSH2 0x11B7 JUMPI PUSH2 0x100 DUP1 DUP4 SLOAD DIV MUL DUP4 MSTORE SWAP2 PUSH1 0x20 ADD SWAP2 PUSH2 0x11E2 JUMP JUMPDEST DUP3 ADD SWAP2 SWAP1 PUSH1 0x0 MSTORE PUSH1 0x20 PUSH1 0x0 KECCAK256 SWAP1 JUMPDEST DUP2 SLOAD DUP2 MSTORE SWAP1 PUSH1 0x1 ADD SWAP1 PUSH1 0x20 ADD DUP1 DUP4 GT PUSH2 0x11C5 JUMPI DUP3 SWAP1 SUB PUSH1 0x1F AND DUP3 ADD SWAP2 JUMPDEST POP POP POP POP PUSH1 0x2 DUP4 ADD SLOAD PUSH1 0x3 DUP5 ADD SLOAD PUSH1 0x4 SWAP1 SWAP5 ADD SLOAD SWAP3 SWAP4 SWAP1 SWAP3 SWAP1 SWAP2 POP PUSH1 0xFF AND DUP6 JUMP JUMPDEST PUSH1 0x7 DUP2 DUP2 SLOAD DUP2 LT PUSH2 0x1213 JUMPI PUSH1 0x0 DUP1 REVERT JUMPDEST SWAP1 PUSH1 0x0 MSTORE PUSH1 0x20 PUSH1 0x0 KECCAK256 ADD PUSH1 0x0 SWAP2 POP SWAP1 POP DUP1 SLOAD PUSH2 0x122E SWAP1 PUSH2 0x234B JUMP JUMPDEST DUP1 PUSH1 0x1F ADD PUSH1 0x20 DUP1 SWAP2 DIV MUL PUSH1 0x20 ADD PUSH1 0x40 MLOAD SWAP1 DUP2 ADD PUSH1 0x40 MSTORE DUP1 SWAP3 SWAP2 SWAP1 DUP2 DUP2 MSTORE PUSH1 0x20 ADD DUP3 DUP1 SLOAD PUSH2 0x125A SWAP1 PUSH2 0x234B JUMP JUMPDEST DUP1 ISZERO PUSH2 0x12A7 JUMPI DUP1 PUSH1 0x1F LT PUSH2 0x127C JUMPI PUSH2 0x100 DUP1 DUP4 SLOAD DIV MUL DUP4 MSTORE SWAP2 PUSH1 0x20 ADD SWAP2 PUSH2 0x12A7 JUMP JUMPDEST DUP3 ADD SWAP2 SWAP1 PUSH1 0x0 MSTORE PUSH1 0x20 PUSH1 0x0 KECCAK256 SWAP1 JUMPDEST DUP2 SLOAD DUP2 MSTORE SWAP1 PUSH1 0x1 ADD SWAP1 PUSH1 0x20 ADD DUP1 DUP4 GT PUSH2 0x128A JUMPI DUP3 SWAP1 SUB PUSH1 0x1F AND DUP3 ADD SWAP2 JUMPDEST POP POP POP POP POP DUP2 JUMP JUMPDEST PUSH1 0x9 SLOAD ISZERO ISZERO DUP1 PUSH2 0x12C0 JUMPI POP PUSH1 0xA SLOAD ISZERO ISZERO JUMPDEST ISZERO PUSH2 0x136A JUMPI PUSH1 0x9 SLOAD TIMESTAMP LT ISZERO PUSH2 0x1317 JUMPI PUSH1 0x40 MLOAD PUSH3 0x461BCD PUSH1 0xE5 SHL DUP2 MSTORE PUSH1 0x20 PUSH1 0x4 DUP3 ADD MSTORE PUSH1 0x19 PUSH1 0x24 DUP3 ADD MSTORE PUSH32 0x526567697374726174696F6E206E6F74206F70656E2079657400000000000000 PUSH1 0x44 DUP3 ADD MSTORE PUSH1 0x64 ADD PUSH2 0x795 JUMP JUMPDEST PUSH1 0xA SLOAD ISZERO DUP1 PUSH2 0x1328 JUMPI POP PUSH1 0xA SLOAD TIMESTAMP GT ISZERO JUMPDEST PUSH2 0x136A JUMPI PUSH1 0x40 MLOAD PUSH3 0x461BCD PUSH1 0xE5 SHL DUP2 MSTORE PUSH1 0x20 PUSH1 0x4 DUP3 ADD MSTORE PUSH1 0x13 PUSH1 0x24 DUP3 ADD MSTORE PUSH19 0x149959DA5CDD1C985D1A5BDB8818DB1BDCD959 PUSH1 0x6A SHL PUSH1 0x44 DUP3 ADD MSTORE PUSH1 0x64 ADD PUSH2 0x795 JUMP JUMPDEST CALLER PUSH1 0x0 SWAP1 DUP2 MSTORE PUSH1 0x2 PUSH1 0x20 MSTORE PUSH1 0x40 SWAP1 KECCAK256 PUSH1 0x1 DUP2 ADD SLOAD PUSH1 0x1 PUSH1 0xA0 SHL SWAP1 DIV PUSH1 0xFF AND PUSH2 0x13CD JUMPI PUSH1 0x40 MLOAD PUSH3 0x461BCD PUSH1 0xE5 SHL DUP2 MSTORE PUSH1 0x20 PUSH1 0x4 DUP3 ADD MSTORE PUSH1 0x16 PUSH1 0x24 DUP3 ADD MSTORE PUSH22 0x14DD1D59195B9D081B9BDD081C9959DA5CDD195C9959 PUSH1 0x52 SHL PUSH1 0x44 DUP3 ADD MSTORE PUSH1 0x64 ADD PUSH2 0x795 JUMP JUMPDEST PUSH1 0x0 PUSH1 0x1 DUP4 PUSH1 0x40 MLOAD PUSH2 0x13DF SWAP2 SWAP1 PUSH2 0x23D2 JUMP JUMPDEST SWAP1 DUP2 MSTORE PUSH1 0x20 ADD PUSH1 0x40 MLOAD DUP1 SWAP2 SUB SWAP1 KECCAK256 SWAP1 POP DUP1 PUSH1 0x0 ADD DUP1 SLOAD PUSH2 0x13FE SWAP1 PUSH2 0x234B JUMP JUMPDEST SWAP1 POP PUSH1 0x0 SUB PUSH2 0x141F JUMPI PUSH1 0x40 MLOAD PUSH3 0x461BCD PUSH1 0xE5 SHL DUP2 MSTORE PUSH1 0x4 ADD PUSH2 0x795 SWAP1 PUSH2 0x2659 JUMP JUMPDEST PUSH1 0x4 DUP2 ADD SLOAD PUSH1 0xFF AND PUSH2 0x146A JUMPI PUSH1 0x40 MLOAD PUSH3 0x461BCD PUSH1 0xE5 SHL DUP2 MSTORE PUSH1 0x20 PUSH1 0x4 DUP3 ADD MSTORE PUSH1 0x14 PUSH1 0x24 DUP3 ADD MSTORE PUSH20 0x436F75727365206973206E6F7420616374697665 PUSH1 0x60 SHL PUSH1 0x44 DUP3 ADD MSTORE PUSH1 0x64 ADD PUSH2 0x795 JUMP JUMPDEST DUP1 PUSH1 0x2 ADD SLOAD DUP2 PUSH1 0x3 ADD SLOAD LT PUSH2 0x14B6 JUMPI PUSH1 0x40 MLOAD PUSH3 0x461BCD PUSH1 0xE5 SHL DUP2 MSTORE PUSH1 0x20 PUSH1 0x4 DUP3 ADD MSTORE PUSH1 0x12 PUSH1 0x24 DUP3 ADD MSTORE PUSH18 0x4E6F20736561747320617661696C61626C65 PUSH1 0x70 SHL PUSH1 0x44 DUP3 ADD MSTORE PUSH1 0x64 ADD PUSH2 0x795 JUMP JUMPDEST PUSH1 0x40 MLOAD PUSH1 0x5 SWAP1 PUSH2 0x14C7 SWAP1 DUP5 SWAP1 PUSH2 0x23EE JUMP JUMPDEST SWAP1 DUP2 MSTORE PUSH1 0x20 ADD PUSH1 0x40 MLOAD DUP1 SWAP2 SUB SWAP1 KECCAK256 DUP4 PUSH1 0x40 MLOAD PUSH2 0x14E3 SWAP2 SWAP1 PUSH2 0x23D2 JUMP JUMPDEST SWAP1 DUP2 MSTORE PUSH1 0x40 MLOAD SWAP1 DUP2 SWAP1 SUB PUSH1 0x20 ADD SWAP1 KECCAK256 SLOAD PUSH1 0xFF AND ISZERO PUSH2 0x1536 JUMPI PUSH1 0x40 MLOAD PUSH3 0x461BCD PUSH1 0xE5 SHL DUP2 MSTORE PUSH1 0x20 PUSH1 0x4 DUP3 ADD MSTORE PUSH1 0x10 PUSH1 0x24 DUP3 ADD MSTORE PUSH16 0x105B1C9958591E48195B9C9BDB1B1959 PUSH1 0x82 SHL PUSH1 0x44 DUP3 ADD MSTORE PUSH1 0x64 ADD PUSH2 0x795 JUMP JUMPDEST PUSH1 0x4 PUSH1 0x6 DUP4 PUSH1 0x0 ADD PUSH1 0x40 MLOAD PUSH2 0x154B SWAP2 SWAP1 PUSH2 0x23EE JUMP JUMPDEST SWAP1 DUP2 MSTORE PUSH1 0x20 ADD PUSH1 0x40 MLOAD DUP1 SWAP2 SUB SWAP1 KECCAK256 SLOAD LT PUSH2 0x159F JUMPI PUSH1 0x40 MLOAD PUSH3 0x461BCD PUSH1 0xE5 SHL DUP2 MSTORE PUSH1 0x20 PUSH1 0x4 DUP3 ADD MSTORE PUSH1 0x15 PUSH1 0x24 DUP3 ADD MSTORE PUSH21 0x13585E080D0818DBDD5C9CD95CC81C995858DA1959 PUSH1 0x5A SHL PUSH1 0x44 DUP3 ADD MSTORE PUSH1 0x64 ADD PUSH2 0x795 JUMP JUMPDEST PUSH1 0x3 DUP2 ADD DUP1 SLOAD SWAP1 PUSH1 0x0 PUSH2 0x15B1 DUP4 PUSH2 0x26A5 JUMP JUMPDEST SWAP2 SWAP1 POP SSTORE POP PUSH1 0x1 PUSH1 0x5 DUP4 PUSH1 0x0 ADD PUSH1 0x40 MLOAD PUSH2 0x15CB SWAP2 SWAP1 PUSH2 0x23EE JUMP JUMPDEST SWAP1 DUP2 MSTORE PUSH1 0x20 ADD PUSH1 0x40 MLOAD DUP1 SWAP2 SUB SWAP1 KECCAK256 DUP5 PUSH1 0x40 MLOAD PUSH2 0x15E7 SWAP2 SWAP1 PUSH2 0x23D2 JUMP JUMPDEST SWAP1 DUP2 MSTORE PUSH1 0x40 MLOAD SWAP1 DUP2 SWAP1 SUB PUSH1 0x20 ADD DUP2 KECCAK256 DUP1 SLOAD SWAP3 ISZERO ISZERO PUSH1 0xFF NOT SWAP1 SWAP4 AND SWAP3 SWAP1 SWAP3 OR SWAP1 SWAP2 SSTORE PUSH1 0x6 SWAP1 PUSH2 0x1616 SWAP1 DUP5 SWAP1 PUSH2 0x23EE JUMP JUMPDEST SWAP1 DUP2 MSTORE PUSH1 0x40 MLOAD SWAP1 DUP2 SWAP1 SUB PUSH1 0x20 ADD SWAP1 KECCAK256 DUP1 SLOAD SWAP1 PUSH1 0x0 PUSH2 0x1633 DUP4 PUSH2 0x26A5 JUMP JUMPDEST SWAP2 SWAP1 POP SSTORE POP PUSH1 0x8 PUSH1 0x40 MLOAD DUP1 PUSH1 0xA0 ADD PUSH1 0x40 MSTORE DUP1 TIMESTAMP DUP2 MSTORE PUSH1 0x20 ADD DUP5 PUSH1 0x0 ADD DUP1 SLOAD PUSH2 0x165A SWAP1 PUSH2 0x234B JUMP JUMPDEST DUP1 PUSH1 0x1F ADD PUSH1 0x20 DUP1 SWAP2 DIV MUL PUSH1 0x20 ADD PUSH1 0x40 MLOAD SWAP1 DUP2 ADD PUSH1 0x40 MSTORE DUP1 SWAP3 SWAP2 SWAP1 DUP2 DUP2 MSTORE PUSH1 0x20 ADD DUP3 DUP1 SLOAD PUSH2 0x1686 SWAP1 PUSH2 0x234B JUMP JUMPDEST DUP1 ISZERO PUSH2 0x16D3 JUMPI DUP1 PUSH1 0x1F LT PUSH2 0x16A8 JUMPI PUSH2 0x100 DUP1 DUP4 SLOAD DIV MUL DUP4 MSTORE SWAP2 PUSH1 0x20 ADD SWAP2 PUSH2 0x16D3 JUMP JUMPDEST DUP3 ADD SWAP2 SWAP1 PUSH1 0x0 MSTORE PUSH1 0x20 PUSH1 0x0 KECCAK256 SWAP1 JUMPDEST DUP2 SLOAD DUP2 MSTORE SWAP1 PUSH1 0x1 ADD SWAP1 PUSH1 0x20 ADD DUP1 DUP4 GT PUSH2 0x16B6 JUMPI DUP3 SWAP1 SUB PUSH1 0x1F AND DUP3 ADD SWAP2 JUMPDEST POP POP POP SWAP2 DUP4 MSTORE POP POP PUSH1 0x20 DUP1 DUP3 ADD DUP8 SWAP1 MSTORE PUSH1 0x40 DUP1 MLOAD DUP1 DUP3 ADD DUP3 MSTORE PUSH1 0x6 DUP2 MSTORE PUSH6 0x11539493D313 PUSH1 0xD2 SHL DUP2 DUP5 ADD MSTORE SWAP1 DUP4 ADD MSTORE PUSH1 0x1 PUSH1 0x60 SWAP1 SWAP3 ADD DUP3 SWAP1 MSTORE DUP4 SLOAD DUP1 DUP4 ADD DUP6 SSTORE PUSH1 0x0 SWAP5 DUP6 MSTORE SWAP4 DUP2 SWAP1 KECCAK256 DUP4 MLOAD PUSH1 0x5 SWAP1 SWAP6 MUL ADD SWAP4 DUP5 SSTORE DUP3 ADD MLOAD SWAP2 SWAP3 SWAP2 SWAP1 DUP3 ADD SWAP1 PUSH2 0x173B SWAP1 DUP3 PUSH2 0x24DF JUMP JUMPDEST POP PUSH1 0x40 DUP3 ADD MLOAD PUSH1 0x2 DUP3 ADD SWAP1 PUSH2 0x1750 SWAP1 DUP3 PUSH2 0x24DF JUMP JUMPDEST POP PUSH1 0x60 DUP3 ADD MLOAD PUSH1 0x3 DUP3 ADD SWAP1 PUSH2 0x1765 SWAP1 DUP3 PUSH2 0x24DF JUMP JUMPDEST POP PUSH1 0x80 SWAP2 SWAP1 SWAP2 ADD MLOAD PUSH1 0x4 SWAP1 SWAP2 ADD DUP1 SLOAD PUSH1 0xFF NOT AND SWAP2 ISZERO ISZERO SWAP2 SWAP1 SWAP2 OR SWAP1 SSTORE PUSH1 0x3 DUP2 ADD SLOAD PUSH1 0x2 DUP3 ADD SLOAD PUSH32 0xA8E78D4CB17AEBAC25CEE2FFFE78583D4C9C30B03C8B3472B3AAB6DA3D35065B SWAP2 DUP5 SWAP2 DUP7 SWAP2 PUSH2 0xEA3 SWAP2 PUSH2 0x259F JUMP JUMPDEST CALLER PUSH1 0x0 SWAP1 DUP2 MSTORE PUSH1 0x2 PUSH1 0x20 MSTORE PUSH1 0x40 SWAP1 KECCAK256 PUSH1 0x1 ADD SLOAD PUSH1 0x1 PUSH1 0xA0 SHL SWAP1 DIV PUSH1 0xFF AND ISZERO PUSH2 0x1824 JUMPI PUSH1 0x40 MLOAD PUSH3 0x461BCD PUSH1 0xE5 SHL DUP2 MSTORE PUSH1 0x20 PUSH1 0x4 DUP3 ADD MSTORE PUSH1 0x19 PUSH1 0x24 DUP3 ADD MSTORE PUSH32 0x57616C6C657420616C7265616479207265676973746572656400000000000000 PUSH1 0x44 DUP3 ADD MSTORE PUSH1 0x64 ADD PUSH2 0x795 JUMP JUMPDEST PUSH1 0x3 DUP2 PUSH1 0x40 MLOAD PUSH2 0x1834 SWAP2 SWAP1 PUSH2 0x23D2 JUMP JUMPDEST SWAP1 DUP2 MSTORE PUSH1 0x40 MLOAD SWAP1 DUP2 SWAP1 SUB PUSH1 0x20 ADD SWAP1 KECCAK256 SLOAD PUSH1 0xFF AND ISZERO PUSH2 0x1894 JUMPI PUSH1 0x40 MLOAD PUSH3 0x461BCD PUSH1 0xE5 SHL DUP2 MSTORE PUSH1 0x20 PUSH1 0x4 DUP3 ADD MSTORE PUSH1 0x18 PUSH1 0x24 DUP3 ADD MSTORE PUSH32 0x53747564656E7420494420616C72656164792074616B656E0000000000000000 PUSH1 0x44 DUP3 ADD MSTORE PUSH1 0x64 ADD PUSH2 0x795 JUMP JUMPDEST PUSH1 0x0 DUP2 MLOAD GT PUSH2 0x18E5 JUMPI PUSH1 0x40 MLOAD PUSH3 0x461BCD PUSH1 0xE5 SHL DUP2 MSTORE PUSH1 0x20 PUSH1 0x4 DUP3 ADD MSTORE PUSH1 0x1A PUSH1 0x24 DUP3 ADD MSTORE PUSH32 0x53747564656E742049442063616E6E6F7420626520656D707479000000000000 PUSH1 0x44 DUP3 ADD MSTORE PUSH1 0x64 ADD PUSH2 0x795 JUMP JUMPDEST PUSH1 0x40 DUP1 MLOAD PUSH1 0x60 DUP2 ADD DUP3 MSTORE DUP3 DUP2 MSTORE CALLER PUSH1 0x20 DUP1 DUP4 ADD DUP3 SWAP1 MSTORE PUSH1 0x1 DUP4 DUP6 ADD MSTORE PUSH1 0x0 SWAP2 DUP3 MSTORE PUSH1 0x2 SWAP1 MSTORE SWAP2 SWAP1 SWAP2 KECCAK256 DUP2 MLOAD DUP2 SWAP1 PUSH2 0x191C SWAP1 DUP3 PUSH2 0x24DF JUMP JUMPDEST POP PUSH1 0x20 DUP3 ADD MLOAD PUSH1 0x1 SWAP2 DUP3 ADD DUP1 SLOAD PUSH1 0x40 SWAP5 DUP6 ADD MLOAD ISZERO ISZERO PUSH1 0x1 PUSH1 0xA0 SHL MUL PUSH1 0x1 PUSH1 0x1 PUSH1 0xA8 SHL SUB NOT SWAP1 SWAP2 AND PUSH1 0x1 PUSH1 0x1 PUSH1 0xA0 SHL SUB SWAP1 SWAP4 AND SWAP3 SWAP1 SWAP3 OR SWAP2 SWAP1 SWAP2 OR SWAP1 SSTORE SWAP1 MLOAD PUSH1 0x3 SWAP1 PUSH2 0x1968 SWAP1 DUP5 SWAP1 PUSH2 0x23D2 JUMP JUMPDEST SWAP1 DUP2 MSTORE PUSH1 0x40 MLOAD SWAP1 DUP2 SWAP1 SUB PUSH1 0x20 ADD DUP2 KECCAK256 DUP1 SLOAD SWAP3 ISZERO ISZERO PUSH1 0xFF NOT SWAP1 SWAP4 AND SWAP3 SWAP1 SWAP3 OR SWAP1 SWAP2 SSTORE CALLER SWAP1 PUSH1 0x4 SWAP1 PUSH2 0x1999 SWAP1 DUP5 SWAP1 PUSH2 0x23D2 JUMP JUMPDEST SWAP1 DUP2 MSTORE PUSH1 0x40 MLOAD SWAP1 DUP2 SWAP1 SUB PUSH1 0x20 ADD DUP2 KECCAK256 DUP1 SLOAD PUSH1 0x1 PUSH1 0x1 PUSH1 0xA0 SHL SUB SWAP4 SWAP1 SWAP4 AND PUSH1 0x1 PUSH1 0x1 PUSH1 0xA0 SHL SUB NOT SWAP1 SWAP4 AND SWAP3 SWAP1 SWAP3 OR SWAP1 SWAP2 SSTORE PUSH32 0xAA541CC9975B48A66FF0FCCED1B6A07701B89F4BF70332C0E06F406F61B8E979 SWAP1 PUSH2 0x19F8 SWAP1 DUP4 SWAP1 CALLER SWAP1 PUSH2 0x26BE JUMP JUMPDEST PUSH1 0x40 MLOAD DUP1 SWAP2 SUB SWAP1 LOG1 POP JUMP JUMPDEST PUSH1 0x0 PUSH1 0x5 DUP4 PUSH1 0x40 MLOAD PUSH2 0x1A15 SWAP2 SWAP1 PUSH2 0x23D2 JUMP JUMPDEST SWAP1 DUP2 MSTORE PUSH1 0x20 ADD PUSH1 0x40 MLOAD DUP1 SWAP2 SUB SWAP1 KECCAK256 DUP3 PUSH1 0x40 MLOAD PUSH2 0x1A31 SWAP2 SWAP1 PUSH2 0x23D2 JUMP JUMPDEST SWAP1 DUP2 MSTORE PUSH1 0x40 MLOAD SWAP1 DUP2 SWAP1 SUB PUSH1 0x20 ADD SWAP1 KECCAK256 SLOAD PUSH1 0xFF AND SWAP1 POP JUMPDEST SWAP3 SWAP2 POP POP JUMP JUMPDEST PUSH1 0x2 PUSH1 0x20 MSTORE PUSH1 0x0 SWAP1 DUP2 MSTORE PUSH1 0x40 SWAP1 KECCAK256 DUP1 SLOAD DUP2 SWAP1 PUSH2 0x1A68 SWAP1 PUSH2 0x234B JUMP JUMPDEST DUP1 PUSH1 0x1F ADD PUSH1 0x20 DUP1 SWAP2 DIV MUL PUSH1 0x20 ADD PUSH1 0x40 MLOAD SWAP1 DUP2 ADD PUSH1 0x40 MSTORE DUP1 SWAP3 SWAP2 SWAP1 DUP2 DUP2 MSTORE PUSH1 0x20 ADD DUP3 DUP1 SLOAD PUSH2 0x1A94 SWAP1 PUSH2 0x234B JUMP JUMPDEST DUP1 ISZERO PUSH2 0x1AE1 JUMPI DUP1 PUSH1 0x1F LT PUSH2 0x1AB6 JUMPI PUSH2 0x100 DUP1 DUP4 SLOAD DIV MUL DUP4 MSTORE SWAP2 PUSH1 0x20 ADD SWAP2 PUSH2 0x1AE1 JUMP JUMPDEST DUP3 ADD SWAP2 SWAP1 PUSH1 0x0 MSTORE PUSH1 0x20 PUSH1 0x0 KECCAK256 SWAP1 JUMPDEST DUP2 SLOAD DUP2 MSTORE SWAP1 PUSH1 0x1 ADD SWAP1 PUSH1 0x20 ADD DUP1 DUP4 GT PUSH2 0x1AC4 JUMPI DUP3 SWAP1 SUB PUSH1 0x1F AND DUP3 ADD SWAP2 JUMPDEST POP POP POP PUSH1 0x1 SWAP1 SWAP4 ADD SLOAD SWAP2 SWAP3 POP POP PUSH1 0x1 PUSH1 0x1 PUSH1 0xA0 SHL SUB DUP2 AND SWAP1 PUSH1 0xFF PUSH1 0x1 PUSH1 0xA0 SHL SWAP1 SWAP2 DIV AND DUP4 JUMP JUMPDEST PUSH1 0x0 DUP1 PUSH1 0x0 DUP1 PUSH1 0x9 SLOAD PUSH1 0x0 EQ DUP1 ISZERO PUSH2 0x1B1F JUMPI POP PUSH1 0xA SLOAD ISZERO JUMPDEST DUP1 PUSH2 0x1B43 JUMPI POP PUSH1 0x9 SLOAD TIMESTAMP LT ISZERO DUP1 ISZERO PUSH2 0x1B43 JUMPI POP PUSH1 0xA SLOAD ISZERO DUP1 PUSH2 0x1B43 JUMPI POP PUSH1 0xA SLOAD TIMESTAMP GT ISZERO JUMPDEST PUSH1 0x9 SLOAD PUSH1 0xA SLOAD SWAP1 SWAP7 SWAP1 SWAP6 POP SWAP1 SWAP4 POP SWAP2 POP POP JUMP JUMPDEST PUSH1 0x0 SLOAD PUSH1 0x1 PUSH1 0x1 PUSH1 0xA0 SHL SUB AND CALLER EQ PUSH2 0x1B80 JUMPI PUSH1 0x40 MLOAD PUSH3 0x461BCD PUSH1 0xE5 SHL DUP2 MSTORE PUSH1 0x4 ADD PUSH2 0x795 SWAP1 PUSH2 0x239B JUMP JUMPDEST DUP1 ISZERO DUP1 PUSH2 0x1B8C JUMPI POP DUP2 DUP2 GT JUMPDEST PUSH2 0x1BC9 JUMPI PUSH1 0x40 MLOAD PUSH3 0x461BCD PUSH1 0xE5 SHL DUP2 MSTORE PUSH1 0x20 PUSH1 0x4 DUP3 ADD MSTORE PUSH1 0xE PUSH1 0x24 DUP3 ADD MSTORE PUSH14 0x496E76616C69642077696E646F77 PUSH1 0x90 SHL PUSH1 0x44 DUP3 ADD MSTORE PUSH1 0x64 ADD PUSH2 0x795 JUMP JUMPDEST PUSH1 0x9 SWAP2 SWAP1 SWAP2 SSTORE PUSH1 0xA SSTORE JUMP JUMPDEST PUSH1 0x60 DUP1 PUSH1 0x0 DUP1 PUSH1 0x0 DUP1 PUSH1 0x0 PUSH1 0x1 DUP9 PUSH1 0x40 MLOAD PUSH2 0x1BEF SWAP2 SWAP1 PUSH2 0x23D2 JUMP JUMPDEST SWAP1 DUP2 MSTORE PUSH1 0x20 ADD PUSH1 0x40 MLOAD DUP1 SWAP2 SUB SWAP1 KECCAK256 SWAP1 POP DUP1 PUSH1 0x0 ADD DUP1 SLOAD PUSH2 0x1C0E SWAP1 PUSH2 0x234B JUMP JUMPDEST SWAP1 POP PUSH1 0x0 SUB PUSH2 0x1C2F JUMPI PUSH1 0x40 MLOAD PUSH3 0x461BCD PUSH1 0xE5 SHL DUP2 MSTORE PUSH1 0x4 ADD PUSH2 0x795 SWAP1 PUSH2 0x2659 JUMP JUMPDEST PUSH1 0x2 DUP2 ADD SLOAD PUSH1 0x3 DUP3 ADD SLOAD DUP3 SWAP2 PUSH1 0x1 DUP4 ADD SWAP2 PUSH2 0x1C4A DUP2 DUP4 PUSH2 0x259F JUMP JUMPDEST PUSH1 0x4 DUP7 ADD SLOAD DUP6 SLOAD PUSH1 0xFF SWAP1 SWAP2 AND SWAP1 DUP7 SWAP1 PUSH2 0x1C62 SWAP1 PUSH2 0x234B JUMP JUMPDEST DUP1 PUSH1 0x1F ADD PUSH1 0x20 DUP1 SWAP2 DIV MUL PUSH1 0x20 ADD PUSH1 0x40 MLOAD SWAP1 DUP2 ADD PUSH1 0x40 MSTORE DUP1 SWAP3 SWAP2 SWAP1 DUP2 DUP2 MSTORE PUSH1 0x20 ADD DUP3 DUP1 SLOAD PUSH2 0x1C8E SWAP1 PUSH2 0x234B JUMP JUMPDEST DUP1 ISZERO PUSH2 0x1CDB JUMPI DUP1 PUSH1 0x1F LT PUSH2 0x1CB0 JUMPI PUSH2 0x100 DUP1 DUP4 SLOAD DIV MUL DUP4 MSTORE SWAP2 PUSH1 0x20 ADD SWAP2 PUSH2 0x1CDB JUMP JUMPDEST DUP3 ADD SWAP2 SWAP1 PUSH1 0x0 MSTORE PUSH1 0x20 PUSH1 0x0 KECCAK256 SWAP1 JUMPDEST DUP2 SLOAD DUP2 MSTORE SWAP1 PUSH1 0x1 ADD SWAP1 PUSH1 0x20 ADD DUP1 DUP4 GT PUSH2 0x1CBE JUMPI DUP3 SWAP1 SUB PUSH1 0x1F AND DUP3 ADD SWAP2 JUMPDEST POP POP POP POP POP SWAP6 POP DUP5 DUP1 SLOAD PUSH2 0x1CEE SWAP1 PUSH2 0x234B JUMP JUMPDEST DUP1 PUSH1 0x1F ADD PUSH1 0x20 DUP1 SWAP2 DIV MUL PUSH1 0x20 ADD PUSH1 0x40 MLOAD SWAP1 DUP2 ADD PUSH1 0x40 MSTORE DUP1 SWAP3 SWAP2 SWAP1 DUP2 DUP2 MSTORE PUSH1 0x20 ADD DUP3 DUP1 SLOAD PUSH2 0x1D1A SWAP1 PUSH2 0x234B JUMP JUMPDEST DUP1 ISZERO PUSH2 0x1D67 JUMPI DUP1 PUSH1 0x1F LT PUSH2 0x1D3C JUMPI PUSH2 0x100 DUP1 DUP4 SLOAD DIV MUL DUP4 MSTORE SWAP2 PUSH1 0x20 ADD SWAP2 PUSH2 0x1D67 JUMP JUMPDEST DUP3 ADD SWAP2 SWAP1 PUSH1 0x0 MSTORE PUSH1 0x20 PUSH1 0x0 KECCAK256 SWAP1 JUMPDEST DUP2 SLOAD DUP2 MSTORE SWAP1 PUSH1 0x1 ADD SWAP1 PUSH1 0x20 ADD DUP1 DUP4 GT PUSH2 0x1D4A JUMPI DUP3 SWAP1 SUB PUSH1 0x1F AND DUP3 ADD SWAP2 JUMPDEST POP POP POP POP POP SWAP5 POP SWAP7 POP SWAP7 POP SWAP7 POP SWAP7 POP SWAP7 POP SWAP7 POP POP SWAP2 SWAP4 SWAP6 POP SWAP2 SWAP4 SWAP6 JUMP JUMPDEST PUSH1 0x40 MLOAD DUP1 PUSH1 0xA0 ADD PUSH1 0x40 MSTORE DUP1 DUP5 DUP2 MSTORE PUSH1 0x20 ADD DUP4 DUP2 MSTORE PUSH1 0x20 ADD DUP3 DUP2 MSTORE PUSH1 0x20 ADD PUSH1 0x0 DUP2 MSTORE PUSH1 0x20 ADD PUSH1 0x1 ISZERO ISZERO DUP2 MSTORE POP PUSH1 0x1 DUP5 PUSH1 0x40 MLOAD PUSH2 0x1DBF SWAP2 SWAP1 PUSH2 0x23D2 JUMP JUMPDEST SWAP1 DUP2 MSTORE PUSH1 0x40 MLOAD SWAP1 DUP2 SWAP1 SUB PUSH1 0x20 ADD SWAP1 KECCAK256 DUP2 MLOAD DUP2 SWAP1 PUSH2 0x1DDC SWAP1 DUP3 PUSH2 0x24DF JUMP JUMPDEST POP PUSH1 0x20 DUP3 ADD MLOAD PUSH1 0x1 DUP3 ADD SWAP1 PUSH2 0x1DF1 SWAP1 DUP3 PUSH2 0x24DF JUMP JUMPDEST POP PUSH1 0x40 DUP3 ADD MLOAD PUSH1 0x2 DUP3 ADD SSTORE PUSH1 0x60 DUP3 ADD MLOAD PUSH1 0x3 DUP3 ADD SSTORE PUSH1 0x80 SWAP1 SWAP2 ADD MLOAD PUSH1 0x4 SWAP1 SWAP2 ADD DUP1 SLOAD PUSH1 0xFF NOT AND SWAP2 ISZERO ISZERO SWAP2 SWAP1 SWAP2 OR SWAP1 SSTORE PUSH1 0x7 DUP1 SLOAD PUSH1 0x1 DUP2 ADD DUP3 SSTORE PUSH1 0x0 SWAP2 SWAP1 SWAP2 MSTORE PUSH32 0xA66CC928B5EDB82AF9BD49922954155AB7B0942694BEA4CE44661D9A8736C688 ADD PUSH2 0x1E5C DUP5 DUP3 PUSH2 0x24DF JUMP JUMPDEST POP PUSH32 0xFFD03AFF0FABD06B66D1B05D6F233D28748E0B9176F6589B827565F5788CA737 DUP4 DUP4 DUP4 PUSH1 0x40 MLOAD PUSH2 0xEB2 SWAP4 SWAP3 SWAP2 SWAP1 PUSH2 0x26E8 JUMP JUMPDEST PUSH1 0x0 PUSH1 0x20 DUP3 DUP5 SUB SLT ISZERO PUSH2 0x1EA2 JUMPI PUSH1 0x0 DUP1 REVERT JUMPDEST POP CALLDATALOAD SWAP2 SWAP1 POP JUMP JUMPDEST PUSH1 0x0 JUMPDEST DUP4 DUP2 LT ISZERO PUSH2 0x1EC4 JUMPI DUP2 DUP2 ADD MLOAD DUP4 DUP3 ADD MSTORE PUSH1 0x20 ADD PUSH2 0x1EAC JUMP JUMPDEST POP POP PUSH1 0x0 SWAP2 ADD MSTORE JUMP JUMPDEST PUSH1 0x0 DUP2 MLOAD DUP1 DUP5 MSTORE PUSH2 0x1EE5 DUP2 PUSH1 0x20 DUP7 ADD PUSH1 0x20 DUP7 ADD PUSH2 0x1EA9 JUMP JUMPDEST PUSH1 0x1F ADD PUSH1 0x1F NOT AND SWAP3 SWAP1 SWAP3 ADD PUSH1 0x20 ADD SWAP3 SWAP2 POP POP JUMP JUMPDEST DUP6 DUP2 MSTORE PUSH1 0xA0 PUSH1 0x20 DUP3 ADD MSTORE PUSH1 0x0 PUSH2 0x1F12 PUSH1 0xA0 DUP4 ADD DUP8 PUSH2 0x1ECD JUMP JUMPDEST DUP3 DUP2 SUB PUSH1 0x40 DUP5 ADD MSTORE PUSH2 0x1F24 DUP2 DUP8 PUSH2 0x1ECD JUMP JUMPDEST SWAP1 POP DUP3 DUP2 SUB PUSH1 0x60 DUP5 ADD MSTORE PUSH2 0x1F38 DUP2 DUP7 PUSH2 0x1ECD JUMP JUMPDEST SWAP2 POP POP DUP3 ISZERO ISZERO PUSH1 0x80 DUP4 ADD MSTORE SWAP7 SWAP6 POP POP POP POP POP POP JUMP JUMPDEST PUSH4 0x4E487B71 PUSH1 0xE0 SHL PUSH1 0x0 MSTORE PUSH1 0x41 PUSH1 0x4 MSTORE PUSH1 0x24 PUSH1 0x0 REVERT JUMPDEST PUSH1 0x0 DUP3 PUSH1 0x1F DUP4 ADD SLT PUSH2 0x1F74 JUMPI PUSH1 0x0 DUP1 REVERT JUMPDEST DUP2 CALLDATALOAD PUSH8 0xFFFFFFFFFFFFFFFF DUP1 DUP3 GT ISZERO PUSH2 0x1F8F JUMPI PUSH2 0x1F8F PUSH2 0x1F4D JUMP JUMPDEST PUSH1 0x40 MLOAD PUSH1 0x1F DUP4 ADD PUSH1 0x1F NOT SWAP1 DUP2 AND PUSH1 0x3F ADD AND DUP2 ADD SWAP1 DUP3 DUP3 GT DUP2 DUP4 LT OR ISZERO PUSH2 0x1FB7 JUMPI PUSH2 0x1FB7 PUSH2 0x1F4D JUMP JUMPDEST DUP2 PUSH1 0x40 MSTORE DUP4 DUP2 MSTORE DUP7 PUSH1 0x20 DUP6 DUP9 ADD ADD GT ISZERO PUSH2 0x1FD0 JUMPI PUSH1 0x0 DUP1 REVERT JUMPDEST DUP4 PUSH1 0x20 DUP8 ADD PUSH1 0x20 DUP4 ADD CALLDATACOPY PUSH1 0x0 PUSH1 0x20 DUP6 DUP4 ADD ADD MSTORE DUP1 SWAP5 POP POP POP POP POP SWAP3 SWAP2 POP POP JUMP JUMPDEST PUSH1 0x0 PUSH1 0x20 DUP3 DUP5 SUB SLT ISZERO PUSH2 0x2002 JUMPI PUSH1 0x0 DUP1 REVERT JUMPDEST DUP2 CALLDATALOAD PUSH8 0xFFFFFFFFFFFFFFFF DUP2 GT ISZERO PUSH2 0x2019 JUMPI PUSH1 0x0 DUP1 REVERT JUMPDEST PUSH2 0x2025 DUP5 DUP3 DUP6 ADD PUSH2 0x1F63 JUMP JUMPDEST SWAP5 SWAP4 POP POP POP POP JUMP JUMPDEST PUSH1 0x0 PUSH1 0x20 DUP1 DUP4 ADD DUP2 DUP5 MSTORE DUP1 DUP6 MLOAD DUP1 DUP4 MSTORE PUSH1 0x40 DUP7 ADD SWAP2 POP PUSH1 0x40 DUP2 PUSH1 0x5 SHL DUP8 ADD ADD SWAP3 POP DUP4 DUP8 ADD PUSH1 0x0 JUMPDEST DUP3 DUP2 LT ISZERO PUSH2 0x2082 JUMPI PUSH1 0x3F NOT DUP9 DUP7 SUB ADD DUP5 MSTORE PUSH2 0x2070 DUP6 DUP4 MLOAD PUSH2 0x1ECD JUMP JUMPDEST SWAP5 POP SWAP3 DUP6 ADD SWAP3 SWAP1 DUP6 ADD SWAP1 PUSH1 0x1 ADD PUSH2 0x2054 JUMP JUMPDEST POP SWAP3 SWAP8 SWAP7 POP POP POP POP POP POP POP JUMP JUMPDEST PUSH1 0x0 DUP1 PUSH1 0x0 PUSH1 0x60 DUP5 DUP7 SUB SLT ISZERO PUSH2 0x20A4 JUMPI PUSH1 0x0 DUP1 REVERT JUMPDEST DUP4 CALLDATALOAD PUSH8 0xFFFFFFFFFFFFFFFF DUP1 DUP3 GT ISZERO PUSH2 0x20BC JUMPI PUSH1 0x0 DUP1 REVERT JUMPDEST PUSH2 0x20C8 DUP8 DUP4 DUP9 ADD PUSH2 0x1F63 JUMP JUMPDEST SWAP5 POP PUSH1 0x20 DUP7 ADD CALLDATALOAD SWAP2 POP DUP1 DUP3 GT ISZERO PUSH2 0x20DE JUMPI PUSH1 0x0 DUP1 REVERT JUMPDEST POP PUSH2 0x20EB DUP7 DUP3 DUP8 ADD PUSH2 0x1F63 JUMP JUMPDEST SWAP3 POP POP PUSH1 0x40 DUP5 ADD CALLDATALOAD SWAP1 POP SWAP3 POP SWAP3 POP SWAP3 JUMP JUMPDEST PUSH1 0x0 PUSH1 0x20 DUP3 DUP5 SUB SLT ISZERO PUSH2 0x210E JUMPI PUSH1 0x0 DUP1 REVERT JUMPDEST DUP2 CALLDATALOAD PUSH1 0x1 PUSH1 0x1 PUSH1 0xA0 SHL SUB DUP2 AND DUP2 EQ PUSH2 0x2125 JUMPI PUSH1 0x0 DUP1 REVERT JUMPDEST SWAP4 SWAP3 POP POP POP JUMP JUMPDEST PUSH1 0x60 DUP2 MSTORE PUSH1 0x0 PUSH2 0x213F PUSH1 0x60 DUP4 ADD DUP7 PUSH2 0x1ECD JUMP JUMPDEST SWAP4 ISZERO ISZERO PUSH1 0x20 DUP4 ADD MSTORE POP PUSH1 0x40 ADD MSTORE SWAP2 SWAP1 POP JUMP JUMPDEST PUSH1 0x0 DUP1 PUSH1 0x40 DUP4 DUP6 SUB SLT ISZERO PUSH2 0x2164 JUMPI PUSH1 0x0 DUP1 REVERT JUMPDEST DUP3 CALLDATALOAD PUSH8 0xFFFFFFFFFFFFFFFF DUP2 GT ISZERO PUSH2 0x217B JUMPI PUSH1 0x0 DUP1 REVERT JUMPDEST PUSH2 0x2187 DUP6 DUP3 DUP7 ADD PUSH2 0x1F63 JUMP JUMPDEST SWAP6 PUSH1 0x20 SWAP5 SWAP1 SWAP5 ADD CALLDATALOAD SWAP5 POP POP POP POP JUMP JUMPDEST PUSH1 0x0 DUP1 PUSH1 0x40 DUP4 DUP6 SUB SLT ISZERO PUSH2 0x21A9 JUMPI PUSH1 0x0 DUP1 REVERT JUMPDEST DUP3 CALLDATALOAD PUSH8 0xFFFFFFFFFFFFFFFF DUP2 GT ISZERO PUSH2 0x21C0 JUMPI PUSH1 0x0 DUP1 REVERT JUMPDEST PUSH2 0x21CC DUP6 DUP3 DUP7 ADD PUSH2 0x1F63 JUMP JUMPDEST SWAP3 POP POP PUSH1 0x20 DUP4 ADD CALLDATALOAD DUP1 ISZERO ISZERO DUP2 EQ PUSH2 0x21E2 JUMPI PUSH1 0x0 DUP1 REVERT JUMPDEST DUP1 SWAP2 POP POP SWAP3 POP SWAP3 SWAP1 POP JUMP JUMPDEST PUSH1 0xA0 DUP2 MSTORE PUSH1 0x0 PUSH2 0x2200 PUSH1 0xA0 DUP4 ADD DUP9 PUSH2 0x1ECD JUMP JUMPDEST DUP3 DUP2 SUB PUSH1 0x20 DUP5 ADD MSTORE PUSH2 0x2212 DUP2 DUP9 PUSH2 0x1ECD JUMP JUMPDEST PUSH1 0x40 DUP5 ADD SWAP7 SWAP1 SWAP7 MSTORE POP POP PUSH1 0x60 DUP2 ADD SWAP3 SWAP1 SWAP3 MSTORE ISZERO ISZERO PUSH1 0x80 SWAP1 SWAP2 ADD MSTORE SWAP3 SWAP2 POP POP JUMP JUMPDEST PUSH1 0x20 DUP2 MSTORE PUSH1 0x0 PUSH2 0x2125 PUSH1 0x20 DUP4 ADD DUP5 PUSH2 0x1ECD JUMP JUMPDEST PUSH1 0x0 DUP1 PUSH1 0x40 DUP4 DUP6 SUB SLT ISZERO PUSH2 0x2258 JUMPI PUSH1 0x0 DUP1 REVERT JUMPDEST DUP3 CALLDATALOAD PUSH8 0xFFFFFFFFFFFFFFFF DUP1 DUP3 GT ISZERO PUSH2 0x2270 JUMPI PUSH1 0x0 DUP1 REVERT JUMPDEST PUSH2 0x227C DUP7 DUP4 DUP8 ADD PUSH2 0x1F63 JUMP JUMPDEST SWAP4 POP PUSH1 0x20 DUP6 ADD CALLDATALOAD SWAP2 POP DUP1 DUP3 GT ISZERO PUSH2 0x2292 JUMPI PUSH1 0x0 DUP1 REVERT JUMPDEST POP PUSH2 0x229F DUP6 DUP3 DUP7 ADD PUSH2 0x1F63 JUMP JUMPDEST SWAP2 POP POP SWAP3 POP SWAP3 SWAP1 POP JUMP JUMPDEST PUSH1 0x60 DUP2 MSTORE PUSH1 0x0 PUSH2 0x22BC PUSH1 0x60 DUP4 ADD DUP7 PUSH2 0x1ECD JUMP JUMPDEST PUSH1 0x1 PUSH1 0x1 PUSH1 0xA0 SHL SUB SWAP5 SWAP1 SWAP5 AND PUSH1 0x20 DUP4 ADD MSTORE POP SWAP1 ISZERO ISZERO PUSH1 0x40 SWAP1 SWAP2 ADD MSTORE SWAP2 SWAP1 POP JUMP JUMPDEST PUSH1 0x0 DUP1 PUSH1 0x40 DUP4 DUP6 SUB SLT ISZERO PUSH2 0x22EF JUMPI PUSH1 0x0 DUP1 REVERT JUMPDEST POP POP DUP1 CALLDATALOAD SWAP3 PUSH1 0x20 SWAP1 SWAP2 ADD CALLDATALOAD SWAP2 POP JUMP JUMPDEST PUSH1 0xC0 DUP2 MSTORE PUSH1 0x0 PUSH2 0x2311 PUSH1 0xC0 DUP4 ADD DUP10 PUSH2 0x1ECD JUMP JUMPDEST DUP3 DUP2 SUB PUSH1 0x20 DUP5 ADD MSTORE PUSH2 0x2323 DUP2 DUP10 PUSH2 0x1ECD JUMP JUMPDEST SWAP2 POP POP DUP6 PUSH1 0x40 DUP4 ADD MSTORE DUP5 PUSH1 0x60 DUP4 ADD MSTORE DUP4 PUSH1 0x80 DUP4 ADD MSTORE DUP3 ISZERO ISZERO PUSH1 0xA0 DUP4 ADD MSTORE SWAP8 SWAP7 POP POP POP POP POP POP POP JUMP JUMPDEST PUSH1 0x1 DUP2 DUP2 SHR SWAP1 DUP3 AND DUP1 PUSH2 0x235F JUMPI PUSH1 0x7F DUP3 AND SWAP2 POP JUMPDEST PUSH1 0x20 DUP3 LT DUP2 SUB PUSH2 0x237F JUMPI PUSH4 0x4E487B71 PUSH1 0xE0 SHL PUSH1 0x0 MSTORE PUSH1 0x22 PUSH1 0x4 MSTORE PUSH1 0x24 PUSH1 0x0 REVERT JUMPDEST POP SWAP2 SWAP1 POP JUMP JUMPDEST PUSH4 0x4E487B71 PUSH1 0xE0 SHL PUSH1 0x0 MSTORE PUSH1 0x32 PUSH1 0x4 MSTORE PUSH1 0x24 PUSH1 0x0 REVERT JUMPDEST PUSH1 0x20 DUP1 DUP3 MSTORE PUSH1 0x18 SWAP1 DUP3 ADD MSTORE PUSH32 0x4F6E6C792061646D696E2063616E2063616C6C20746869730000000000000000 PUSH1 0x40 DUP3 ADD MSTORE PUSH1 0x60 ADD SWAP1 JUMP JUMPDEST PUSH1 0x0 DUP3 MLOAD PUSH2 0x23E4 DUP2 DUP5 PUSH1 0x20 DUP8 ADD PUSH2 0x1EA9 JUMP JUMPDEST SWAP2 SWAP1 SWAP2 ADD SWAP3 SWAP2 POP POP JUMP JUMPDEST PUSH1 0x0 DUP1 DUP4 SLOAD PUSH2 0x23FC DUP2 PUSH2 0x234B JUMP JUMPDEST PUSH1 0x1 DUP3 DUP2 AND DUP1 ISZERO PUSH2 0x2414 JUMPI PUSH1 0x1 DUP2 EQ PUSH2 0x2429 JUMPI PUSH2 0x2458 JUMP JUMPDEST PUSH1 0xFF NOT DUP5 AND DUP8 MSTORE DUP3 ISZERO ISZERO DUP4 MUL DUP8 ADD SWAP5 POP PUSH2 0x2458 JUMP JUMPDEST DUP8 PUSH1 0x0 MSTORE PUSH1 0x20 DUP1 PUSH1 0x0 KECCAK256 PUSH1 0x0 JUMPDEST DUP6 DUP2 LT ISZERO PUSH2 0x244F JUMPI DUP2 SLOAD DUP11 DUP3 ADD MSTORE SWAP1 DUP5 ADD SWAP1 DUP3 ADD PUSH2 0x2436 JUMP JUMPDEST POP POP POP DUP3 DUP8 ADD SWAP5 POP JUMPDEST POP SWAP3 SWAP7 SWAP6 POP POP POP POP POP POP JUMP JUMPDEST PUSH4 0x4E487B71 PUSH1 0xE0 SHL PUSH1 0x0 MSTORE PUSH1 0x11 PUSH1 0x4 MSTORE PUSH1 0x24 PUSH1 0x0 REVERT JUMPDEST PUSH1 0x0 DUP2 PUSH2 0x2489 JUMPI PUSH2 0x2489 PUSH2 0x2464 JUMP JUMPDEST POP PUSH1 0x0 NOT ADD SWAP1 JUMP JUMPDEST PUSH1 0x1F DUP3 GT ISZERO PUSH2 0xA88 JUMPI PUSH1 0x0 DUP2 DUP2 MSTORE PUSH1 0x20 DUP2 KECCAK256 PUSH1 0x1F DUP6 ADD PUSH1 0x5 SHR DUP2 ADD PUSH1 0x20 DUP7 LT ISZERO PUSH2 0x24B8 JUMPI POP DUP1 JUMPDEST PUSH1 0x1F DUP6 ADD PUSH1 0x5 SHR DUP3 ADD SWAP2 POP JUMPDEST DUP2 DUP2 LT ISZERO PUSH2 0x24D7 JUMPI DUP3 DUP2 SSTORE PUSH1 0x1 ADD PUSH2 0x24C4 JUMP JUMPDEST POP POP POP POP POP POP JUMP JUMPDEST DUP2 MLOAD PUSH8 0xFFFFFFFFFFFFFFFF DUP2 GT ISZERO PUSH2 0x24F9 JUMPI PUSH2 0x24F9 PUSH2 0x1F4D JUMP JUMPDEST PUSH2 0x250D DUP2 PUSH2 0x2507 DUP5 SLOAD PUSH2 0x234B JUMP JUMPDEST DUP5 PUSH2 0x2491 JUMP JUMPDEST PUSH1 0x20 DUP1 PUSH1 0x1F DUP4 GT PUSH1 0x1 DUP2 EQ PUSH2 0x2542 JUMPI PUSH1 0x0 DUP5 ISZERO PUSH2 0x252A JUMPI POP DUP6 DUP4 ADD MLOAD JUMPDEST PUSH1 0x0 NOT PUSH1 0x3 DUP7 SWAP1 SHL SHR NOT AND PUSH1 0x1 DUP6 SWAP1 SHL OR DUP6 SSTORE PUSH2 0x24D7 JUMP JUMPDEST PUSH1 0x0 DUP6 DUP2 MSTORE PUSH1 0x20 DUP2 KECCAK256 PUSH1 0x1F NOT DUP7 AND SWAP2 JUMPDEST DUP3 DUP2 LT ISZERO PUSH2 0x2571 JUMPI DUP9 DUP7 ADD MLOAD DUP3 SSTORE SWAP5 DUP5 ADD SWAP5 PUSH1 0x1 SWAP1 SWAP2 ADD SWAP1 DUP5 ADD PUSH2 0x2552 JUMP JUMPDEST POP DUP6 DUP3 LT ISZERO PUSH2 0x258F JUMPI DUP8 DUP6 ADD MLOAD PUSH1 0x0 NOT PUSH1 0x3 DUP9 SWAP1 SHL PUSH1 0xF8 AND SHR NOT AND DUP2 SSTORE JUMPDEST POP POP POP POP POP PUSH1 0x1 SWAP1 DUP2 SHL ADD SWAP1 SSTORE POP JUMP JUMPDEST DUP2 DUP2 SUB DUP2 DUP2 GT ISZERO PUSH2 0x1A47 JUMPI PUSH2 0x1A47 PUSH2 0x2464 JUMP JUMPDEST PUSH1 0x60 DUP2 MSTORE PUSH1 0x0 DUP1 DUP6 SLOAD PUSH2 0x25C4 DUP2 PUSH2 0x234B JUMP JUMPDEST DUP1 PUSH1 0x60 DUP7 ADD MSTORE PUSH1 0x80 PUSH1 0x1 DUP1 DUP5 AND PUSH1 0x0 DUP2 EQ PUSH2 0x25E6 JUMPI PUSH1 0x1 DUP2 EQ PUSH2 0x2600 JUMPI PUSH2 0x2631 JUMP JUMPDEST PUSH1 0xFF NOT DUP6 AND DUP9 DUP5 ADD MSTORE DUP4 ISZERO ISZERO PUSH1 0x5 SHL DUP9 ADD DUP4 ADD SWAP6 POP PUSH2 0x2631 JUMP JUMPDEST DUP11 PUSH1 0x0 MSTORE PUSH1 0x20 DUP1 PUSH1 0x0 KECCAK256 PUSH1 0x0 JUMPDEST DUP7 DUP2 LT ISZERO PUSH2 0x2628 JUMPI DUP2 SLOAD DUP12 DUP3 ADD DUP8 ADD MSTORE SWAP1 DUP5 ADD SWAP1 DUP3 ADD PUSH2 0x260D JUMP JUMPDEST DUP11 ADD DUP6 ADD SWAP8 POP POP POP JUMPDEST POP POP POP POP POP DUP3 DUP2 SUB PUSH1 0x20 DUP5 ADD MSTORE PUSH2 0x2648 DUP2 DUP7 PUSH2 0x1ECD JUMP JUMPDEST SWAP2 POP POP DUP3 PUSH1 0x40 DUP4 ADD MSTORE SWAP5 SWAP4 POP POP POP POP JUMP JUMPDEST PUSH1 0x20 DUP1 DUP3 MSTORE PUSH1 0x10 SWAP1 DUP3 ADD MSTORE PUSH16 0x10DBDD5C9CD9481B9BDD08199BDD5B99 PUSH1 0x82 SHL PUSH1 0x40 DUP3 ADD MSTORE PUSH1 0x60 ADD SWAP1 JUMP JUMPDEST PUSH1 0x40 DUP2 MSTORE PUSH1 0x0 PUSH2 0x2696 PUSH1 0x40 DUP4 ADD DUP6 PUSH2 0x1ECD JUMP JUMPDEST SWAP1 POP DUP3 PUSH1 0x20 DUP4 ADD MSTORE SWAP4 SWAP3 POP POP POP JUMP JUMPDEST PUSH1 0x0 PUSH1 0x1 DUP3 ADD PUSH2 0x26B7 JUMPI PUSH2 0x26B7 PUSH2 0x2464 JUMP JUMPDEST POP PUSH1 0x1 ADD SWAP1 JUMP JUMPDEST PUSH1 0x40 DUP2 MSTORE PUSH1 0x0 PUSH2 0x26D1 PUSH1 0x40 DUP4 ADD DUP6 PUSH2 0x1ECD JUMP JUMPDEST SWAP1 POP PUSH1 0x1 DUP1 PUSH1 0xA0 SHL SUB DUP4 AND PUSH1 0x20 DUP4 ADD MSTORE SWAP4 SWAP3 POP POP POP JUMP JUMPDEST PUSH1 0x60 DUP2 MSTORE PUSH1 0x0 PUSH2 0x26FB PUSH1 0x60 DUP4 ADD DUP7 PUSH2 0x1ECD JUMP JUMPDEST DUP3 DUP2 SUB PUSH1 0x20 DUP5 ADD MSTORE PUSH2 0x2648 DUP2 DUP7 PUSH2 0x1ECD JUMP INVALID LOG2 PUSH5 0x6970667358 0x22 SLT KECCAK256 EXTCODECOPY DUP15 DUP12 PUSH23 0x30C07DA56324F1D67DD82CCD2F1EEB7349933C597F18CB JUMPI DIV DUP7 0xBF PUSH23 0x64736F6C63430008130033000000000000000000000000 ","sha1":"552b00295d952d7bbe94169d56cc7d2ed7fa2375","source":"// SPDX-License-Identifier: MIT\npragma solidity ^0.8.19;\n\ncontract CourseRegistration {\n\n    address public admin;\n\n    modifier onlyAdmin() {\n        require(msg.sender == admin, \"Only admin can call this\");\n        _;\n    }\n\n    struct Course {\n        string  courseId;\n        string  courseName;\n        uint256 totalSeats;\n        uint256 enrolledCount;\n        bool    isActive;\n    }\n\n    struct Student {\n        string  studentId;\n        address wallet;\n        bool    isRegistered;\n    }\n\n    struct TxRecord {\n        uint256 timestamp;\n        string  studentId;\n        string  courseId;\n        string  action;\n        bool    success;\n    }\n\n    mapping(string => Course)   public courses;\n    mapping(address => Student) public students;\n    mapping(string => bool)     public studentIdExists;\n    mapping(string => address)  public studentIdToWallet;\n    mapping(string => mapping(string => bool)) public enrollments;\n    mapping(string => uint256) public studentCourseCount;\n\n    string[]    public courseList;\n    TxRecord[]  public ledger;\n\n    uint256 public constant MAX_COURSES_PER_STUDENT = 4;\n    uint256 public registrationStart;\n    uint256 public registrationEnd;\n\n    event StudentRegistered(string studentId, address wallet);\n    event CourseAdded(string courseId, string courseName, uint256 seats);\n    event Enrolled(string studentId, string courseId, uint256 remainingSeats);\n    event Dropped(string studentId, string courseId, uint256 remainingSeats);\n    event SeatUpdated(string courseId, uint256 newTotal);\n\n    constructor() {\n        admin = msg.sender;\n        _addCourse(\"CC\",    \"Cloud Computing\",                    40);\n        _addCourse(\"OOAD\",  \"Object Oriented Analysis & Design\",  35);\n        _addCourse(\"CD\",    \"Compiler Design\",                    30);\n        _addCourse(\"MAR\",   \"Marketing Analytics\",                25);\n        _addCourse(\"BC\",    \"Blockchain & Cryptography\",          20);\n        _addCourse(\"GenAI\", \"Generative AI\",                      15);\n        _addCourse(\"DBT\",   \"Database Technologies\",              30);\n        _addCourse(\"DT\",    \"Digital Transformation\",             20);\n        _addCourse(\"DF\",    \"Digital Forensics\",                  20);\n        registrationStart = 0;\n        registrationEnd   = 0;\n    }\n\n    function _addCourse(string memory id, string memory name, uint256 seats) internal {\n        courses[id] = Course(id, name, seats, 0, true);\n        courseList.push(id);\n        emit CourseAdded(id, name, seats);\n    }\n\n    function setRegistrationWindow(uint256 start, uint256 end) external onlyAdmin {\n        require(end == 0 || end > start, \"Invalid window\");\n        registrationStart = start;\n        registrationEnd   = end;\n    }\n\n    function addCourse(string memory courseId, string memory courseName, uint256 totalSeats)\n        external onlyAdmin\n    {\n        require(bytes(courses[courseId].courseId).length == 0, \"Course already exists\");\n        require(totalSeats > 0, \"Seats must be > 0\");\n        _addCourse(courseId, courseName, totalSeats);\n    }\n\n    function updateSeats(string memory courseId, uint256 newTotal) external onlyAdmin {\n        require(bytes(courses[courseId].courseId).length != 0, \"Course not found\");\n        require(newTotal >= courses[courseId].enrolledCount, \"Cannot reduce below enrolled\");\n        courses[courseId].totalSeats = newTotal;\n        emit SeatUpdated(courseId, newTotal);\n    }\n\n    function toggleCourse(string memory courseId, bool active) external onlyAdmin {\n        require(bytes(courses[courseId].courseId).length != 0, \"Course not found\");\n        courses[courseId].isActive = active;\n    }\n\n    function registerStudent(string memory studentId) external {\n        require(!students[msg.sender].isRegistered, \"Wallet already registered\");\n        require(!studentIdExists[studentId],         \"Student ID already taken\");\n        require(bytes(studentId).length > 0,         \"Student ID cannot be empty\");\n        students[msg.sender]         = Student(studentId, msg.sender, true);\n        studentIdExists[studentId]   = true;\n        studentIdToWallet[studentId] = msg.sender;\n        emit StudentRegistered(studentId, msg.sender);\n    }\n\n    function enroll(string memory courseId) external {\n        if (registrationStart != 0 || registrationEnd != 0) {\n            require(block.timestamp >= registrationStart, \"Registration not open yet\");\n            require(registrationEnd == 0 || block.timestamp <= registrationEnd, \"Registration closed\");\n        }\n        Student storage stu = students[msg.sender];\n        require(stu.isRegistered,                         \"Student not registered\");\n        Course storage crs = courses[courseId];\n        require(bytes(crs.courseId).length != 0,          \"Course not found\");\n        require(crs.isActive,                             \"Course is not active\");\n        require(crs.enrolledCount < crs.totalSeats,       \"No seats available\");\n        require(!enrollments[stu.studentId][courseId],    \"Already enrolled\");\n        require(studentCourseCount[stu.studentId] < MAX_COURSES_PER_STUDENT, \"Max 4 courses reached\");\n\n        crs.enrolledCount++;\n        enrollments[stu.studentId][courseId] = true;\n        studentCourseCount[stu.studentId]++;\n        ledger.push(TxRecord(block.timestamp, stu.studentId, courseId, \"ENROLL\", true));\n        emit Enrolled(stu.studentId, courseId, crs.totalSeats - crs.enrolledCount);\n    }\n\n    function drop(string memory courseId) external {\n        Student storage stu = students[msg.sender];\n        require(stu.isRegistered,                      \"Student not registered\");\n        require(enrollments[stu.studentId][courseId],  \"Not enrolled in this course\");\n        Course storage crs = courses[courseId];\n        crs.enrolledCount--;\n        enrollments[stu.studentId][courseId] = false;\n        studentCourseCount[stu.studentId]--;\n        ledger.push(TxRecord(block.timestamp, stu.studentId, courseId, \"DROP\", true));\n        emit Dropped(stu.studentId, courseId, crs.totalSeats - crs.enrolledCount);\n    }\n\n    function getCourseIds() external view returns (string[] memory) { return courseList; }\n\n    function getCourse(string memory courseId)\n        external view returns (string memory, string memory, uint256, uint256, uint256, bool)\n    {\n        Course storage c = courses[courseId];\n        require(bytes(c.courseId).length != 0, \"Course not found\");\n        return (c.courseId, c.courseName, c.totalSeats, c.enrolledCount,\n                c.totalSeats - c.enrolledCount, c.isActive);\n    }\n\n    function isEnrolled(string memory studentId, string memory courseId)\n        external view returns (bool)\n    { return enrollments[studentId][courseId]; }\n\n    function getLedgerLength() external view returns (uint256) { return ledger.length; }\n\n    function getLedgerEntry(uint256 index)\n        external view returns (uint256, string memory, string memory, string memory, bool)\n    {\n        require(index < ledger.length, \"Out of range\");\n        TxRecord storage t = ledger[index];\n        return (t.timestamp, t.studentId, t.courseId, t.action, t.success);\n    }\n\n    function getStudentInfo(address wallet)\n        external view returns (string memory, bool, uint256)\n    {\n        Student storage s = students[wallet];\n        return (s.studentId, s.isRegistered, studentCourseCount[s.studentId]);\n    }\n\n    function getRegistrationWindow()\n        external view returns (uint256, uint256, bool)\n    {\n        bool open = (registrationStart == 0 && registrationEnd == 0)\n                 || (block.timestamp >= registrationStart\n                     && (registrationEnd == 0 || block.timestamp <= registrationEnd));\n        return (registrationStart, registrationEnd, open);\n    }\n}","sourcePath":"contracts/CourseRegistration.sol","deployment":{"address":"0xcF53f464E45aAbE84458E14c7E4c63f16dd8AAB0","chainid":"1337","blockHeight":1}}